:020000040800F2
:1000000020F5012081020008B52F00080D2E000800
:10001000B32F000819110008853300080000000004
:10002000000000000000000000000000C101000806
:1000300085120008000000001D020008D32F0008F0
:100040009B0200089B0200089B0200089B0200081C
:100050009B0200089B0200089B0200089B0200080C
:100060009B0200089B0200089B0200089B020008FC
:100070009B0200089B0200089B0200089B020008EC
:100080009B0200089B0200089B0200089B020008DC
:100090009B0200089B0200089B0200089B020008CC
:1000A0009B0200089B0200089B0200089B020008BC
:1000B0009B0200089B0200089B0200089B020008AC
:1000C0009B0200089B0200089B0200089B0200089C
:1000D0009B0200086D330008793300089B0200087A
:1000E0009B0200089B0200089B0200089B0200087C
:1000F0009B0200089B0200089B0200089B0200086C
:100100009B0200089B0200089B0200089B0200085B
:100110009B0200089B020008FD2F00089B020008BC
:100120009B0200089B0200089B0200089B0200083B
:100130009B0200089B0200089B0200089B0200082B
:100140009B0200089B0200089B0200089B0200081B
:100150009B0200089B0200089B0200089B0200080B
:100160009B0200089B0200089B0200089B020008FB
:100170009B0200089B0200089B0200080000000090
:100180009B0200089B0200089B0200089B020008DB
:100190009B0200089B0200089B0200089B020008CB
:1001A0009B0200089B0200089B020008DFF80CD0AD
:1001B00000F048FE004800476997020820F501203A
:1001C0002C4B19680868B0E8F04F80F30988BFF33A
:1001D0006F8F4FF0000080F311887047000000001F
:1001E00008480068006880F308884FF0000080F33A
:1001F000148862B661B6BFF34F8FBFF36F8F00DF15
:1002000000BF00BF08ED00E0DFF80C00016841F41A
:1002100070010160704700BF88ED00E0EFF30980D6
:10022000BFF36F8F134B1A681EF0100F08BF20ED3D
:10023000108A20E9F04F106009B44FF0500080F3AD
:100240001188BFF34F8FBFF36F8F30F067FB4FF014
:10025000000080F3118809BC19680868B0E8F04F05
:100260001EF0100F08BFB0EC108A80F30988BFF3AE
:100270006F8F704734010020EFF305807047000056
:100280000648804706480047FEE7FEE7FEE7FEE730
:10029000FEE7FEE7FEE7FEE7FEE7FEE7ED2F0008DC
:1002A000AD0100082DE9F05F0546002092469B460F
:1002B00088460646814640241BE02846414647467C
:1002C000224600F076FC53465A46C01A914110D39C
:1002D00011461846224600F05DFC2D1A67EB010816
:1002E0004F4622460120002100F054FC17EB000984
:1002F0004E41201EA4F10104DFDC484631462A4667
:100300004346BDE8F09FA0F14101192900D82030F3
:10031000704740EA01039B0703D009E008C9121F98
:1003200008C0042AFAD203E011F8013B00F8013BAF
:10033000521EF9D27047D2B201E000F8012B491EDB
:10034000FBD270470022F6E710B513460A46044672
:100350001946FFF7F0FF204610BD421C10F8011BA4
:100360000029FBD1801A704710B5002200E0521C12
:10037000835C8C5CA34201D1002BF8D1D8B2E1B2EE
:10038000401A10BD034611F8012B00F8012B002A7A
:10039000F9D11846704730B505460020034600E005
:1003A0005B1C934205D2EC5CC85C201A01D1002C86
:1003B000F6D130BD2DE9FF4F087883B09946FF286C
:1003C00005D0491C2D2804D00024002008E000207E
:1003D0000BE00124F9E700EB800003EB4000491C2F
:1003E0000B78FF2BF7D104B140420023029314781D
:1003F00019461D462D2C01D02B2C04D1521C2D2C1E
:1004000013D000240294AA461478FF2C0FD00A259A
:10041000A3FB057801FB05814FF0000C03FB0C11D9
:10042000521CE3194AEB0101EEE70124EAE781449B
:1004300053EA010002D019F5C87F06DA03980021BB
:10044000C0E9001107B0BDE8F08F0025AE4E2F4681
:10045000DFF8B882184600F0D1FCCDE90001B9F10F
:10046000000002DAC9F1000400E004460023A74AB4
:100470001AEB030B42EB045A12E0E00707D02A46BE
:1004800033463846414600F0ECF9074688462A468E
:1004900033461046194600F0E4F905460E4664104E
:1004A000002CEAD1DDE90001B9F1000F5A465346AC
:1004B00006DA00F048FA3A46434600F044FA05E00E
:1004C00000F0CFF93A46434600F0CBF9029A0AB160
:1004D00081F00041039AC2E90001B3E72DE9FF4F23
:1004E0001F468DB0D7E901464FF0FF382E20454614
:1004F0004FF000090B90B9696D1C0E988847396A56
:10050000824688470028F6D1BAF1FF3F0AD024F48A
:10051000D064002E11DDBAF12B0F08D0BAF12D0FE7
:100520000BD102E0404611B08DE744F48064B96914
:100530006D1C0E9888478246761E6946600501D577
:100540002D2000E02B208DF8000001F1010B0DF1B2
:10055000200809E0B9696D1C0E98884782460F98FB
:1005600044F40074761E0560002E02DDBAF1300FEF
:10057000F0D00B998A453ED144F0800406E00F99F3
:10058000681CA9F1010944F400740860B9696D1C84
:10059000761E0E98884782463028F0D02BE00B99C3
:1005A0008A4505D1200603D444F08004761E18E065
:1005B000504603F09CF808B30DF11301761E44F485
:1005C00000748B4508D2AAF130000BF8010B20060D
:1005D00007D5A9F1010003E0200602D409F10100CA
:1005E0008146A00502D50F99681C0860B9696D1C89
:1005F0000E9888478246002ED1DC53E0002E51DD54
:10060000BAF1650F02D0BAF1450F4BD1A00549D51B
:10061000B9696D1C24F44074761E0E988847824692
:10062000002E0CDD2B2804D0BAF12D0F07D144F495
:100630008074B9696D1C0E9888478246761EE00565
:1006400001D52D2100E02B2108F8011BCDF82C80CD
:1006500021E00DF12901761E44F4007488450CD286
:10066000AAF1300010F0FF0088F8000002D10B99C9
:10067000884509D908F1010806E0E00501D52448BC
:1006800001E042F20F708146B9696D1C0E988847EF
:1006900082460F980560002E04DD504603F027F8CF
:1006A0000028D6D1F9690E988847FF208BF8000002
:1006B00088F800000020069007904B466A4608A97B
:1006C00006A8FFF777FEA00502D46FF001002AE725
:1006D00014F0240F0AD0E00714D1DDE906123868BF
:1006E000031D3B600068C0E900120BE0DDE9060174
:1006F00000F01EFA0146E00704D13868021D3A6096
:100700000068016028460EE7000014400000F03F3A
:10071000F1D8FFFF2DE9FE4F804681EA0300C00FAC
:100720000C46009021F0004123F00045B8EB020098
:10073000A94105D24046214690461C460B4602463A
:1007400023F00040104347D0270DC7F30A00C3F33E
:100750000A510290401A019040286BDAC3F313004B
:1007600040F4801B0098924620B10023D2EB030A8C
:1007700063EB0B0B01985946C0F14002504600F064
:1007800009FA06460D4650465946019A00F021FAEC
:1007900010EB08006141002487EA115284EAE773F4
:1007A0001A4340D0009A62B3019A012A4FEA0752D5
:1007B00015DC001B61EB02014FF0004202EA075218
:1007C000CDE90042001C41F5801132462B4600F075
:1007D000C7FA03B0BDE8F08F40462146F9E7001B99
:1007E00061EB0201001C41F5801300185B412018E9
:1007F000A2F5001747EB030140EAD570B6196D4129
:1008000011E06D084FEA360645EAC0754FEA075217
:10081000001B61EB0201001C41F5801149084FEA01
:1008200030000019514132462B4603B0BDE8F04F6D
:1008300000F087BA0098012240000023D0EB0202AA
:1008400063EBE073009821464FEAE074B8EB0000D8
:1008500061EB0401E9E783F000435BE781F00041CD
:1008600058E72DE9FE4F81EA030404F0004421F02B
:10087000004100944FF0000B23F0004350EA0104C4
:100880005ED052EA03045BD0C3F30A54C1F30A55A5
:100890002C44A4F2F3340194A0FB0254C1F31301DD
:1008A00041F48011C3F3130343F4801301FB0244AA
:1008B00000FB034E840A970A44EA815447EA8357AF
:1008C000A4FB076802958D0A05FB07854FEA932C68
:1008D00004FB0C542705029D4FEA065847EA1637D9
:1008E000B5EB08056EEB070C870E920E47EA8117F1
:1008F00042EA8312A7FB0201B6EB0B0164EB000492
:100900002B0D43EA0C335E1844EB1C50DA4651467B
:10091000E7FB0201C5F313044FEA0B3343EA145318
:100920004FEA0432019C43EA0603A4F10C0402944A
:10093000009CCDE900B400F013FA03B0BDE8F08FDD
:1009400000200146F9E72DE9F04D81EA030404F0A7
:10095000004B21F0004514464FF0000A23F00041FF
:1009600050EA050220D054EA01021DD0C5F30A570F
:100970000246C5F31303C1F31300C1F30A5640F452
:10098000801543F48013A7EB0608101BD64608F227
:10099000FD3873EB050002D308F1010801E092185D
:1009A0005B41B8F1000F03DA00200146BDE8F08D8D
:1009B00000204FF48011064684460EE0171B73EBAF
:1009C000050705D3121B63EB050306434CEA010C34
:1009D00049084FEA300092185B4150EA0107EDD117
:1009E00052EA030012D082EA040083EA05010843B8
:1009F00005D0101BAB4106D20122002306E00022E5
:100A00004FF0004302E06FF0010253101AEB0600B2
:100A10004CEB085110EB0A0041EB0B01BDE8F04D27
:100A200000F08FB90EB5C10F80EAE0700844CA0724
:100A3000002140F233438DE80E000A460B4600F0D9
:100A40008FF903B000BD0EB540F233410291002191
:100A5000CDE900110A460B4600F082F903B000BD53
:100A600070B5C1F30A5201F000450024C1F313012F
:100A700040F2FF3341F480119A4201DA002070BD48
:100A800040F233439A42A2F2334203DC524200F076
:100A900090F800E090402C43F1D0404270BDC1F38B
:100AA0000A5210B5C1F3130140F2FF3341F4801133
:100AB0009A4201DA002010BD40F233439A42A2F27A
:100AC000334203DC524200F074F810BD904010BD78
:100AD00030B5041E71F1000404DB4FF000444042C5
:100AE00064EB0101141E73F1000405DB1C464FF09A
:100AF0000043524263EB04038B4208BF824230BD85
:100B000030B5041E71F1000404DB4FF00044404294
:100B100064EB0101141E73F1000405DB1C464FF069
:100B20000043524263EB0403994208BF904230BD38
:100B300001F0004330B421F0004150EA010206D038
:100B40000A0DA2F56072C1F31301002A02DC30BC69
:100B500000207047440F44EAC104C100E01830BCD3
:100B600000EBC25000F0B6B830B50B46014600208D
:100B70002022012409E021FA02F59D4205D303FA5F
:100B800002F5491B04FA02F52844151EA2F10102E0
:100B9000F1DC30BD202A04DB203A00FA02F100200B
:100BA00070479140C2F1200320FA03F319439040AB
:100BB0007047202A04DB203A21FA02F00021704716
:100BC00021FA02F3D040C2F12002914008431946B5
:100BD0007047202A06DBCB17203A41FA02F043EA9D
:100BE000E07306E041FA02F3D040C2F120029140E6
:100BF000084319467047426842B1016811F8013B49
:100C000023B1521EC0E90012184670470121C1608D
:100C1000881E704742685AB1C368016843B9836847
:100C20008B4205D0491E521CC0E9001200207047BB
:100C30004FF0FF30704700000FB4002300B589B0BB
:100C40000CA900910B996FF00042CB601E4B0693EC
:100C50001E4B07930423CDE901321D4A0892024638
:100C60006B460020FFF73AFC09B05DF814FB70B545
:100C700086B006464FF0FF300091CDE9010100201B
:100C800015460C4604903246694604A8FFF7D4FF87
:100C900002460498211825B108B1084600E0204614
:100CA0002860049800280DD0002A02DD00988842B0
:100CB00008D0081B0094CDE901043246694604A817
:100CC000FFF7BAFF06B070BDF70B0008150C00085F
:100CD000690E00080029A8BF7047401C490008BFE2
:100CE00020F00100704710B4B0FA80FC00FA0CF05C
:100CF00050EA010404BF10BC704749B1CCF1200494
:100D000021FA04F411FA0CF118BF01212143084320
:100D1000A3EB0C01CB1D4FEA00614FEA102042BF4C
:100D2000002010BC704700EBC35010440029A4BF42
:100D300010BC7047401C490008BF20F0010010BCE7
:100D4000704710B5141E73F1000408DA401C41F11D
:100D5000000192185B411A4301D120F0010010BD3F
:100D60002DE9F04D92469B4611B1B1FA81F202E0B5
:100D7000B0FA80F220329046FFF70CFF04460F468F
:100D800040EA0A0041EA0B0153465A46084313D091
:100D9000114653EA010019D0C8F140025046FFF74E
:100DA00008FF05460E46504659464246FFF7F2FEFA
:100DB000084305D0012004E020463946BDE8F08D07
:100DC0000020054346EAE0762C4337430A98630542
:100DD000E40AA0EB08000022FD0A44EA47540A3066
:100DE00002D500200146E9E7010510196941DDE956
:100DF000084500196941BDE8F04DA2E70EB540F283
:100E0000334202920022CDE900221346FFF7A8FFE9
:100E100003B000BDC1F30A52C1F3130140F2FF3326
:100E200041F480119A4202DA00200146704740F2F4
:100E300033439A42A2F2334202DC5242FFF7B9BE78
:100E4000FFF7A8BE064C074D06E0E06840F001033E
:100E500094E8070098471034AC42F6D3FFF7AAF99C
:100E600070AD050890AD0508C0B24FF4F05100F028
:100E700001B800007F2801D9002208E0064A02EBF1
:100E80005002C007127800D1120902F00F020120AF
:100E9000904008407047000094A7050870B58C1872
:100EA00010F8015B15F0070301D110F8013B2A117E
:100EB00006D110F8012B03E010F8016B01F8016B6B
:100EC0005B1EF9D12B0705D40023521E0DD401F867
:100ED000013BFAE710F8013BCB1A921C03E013F830
:100EE000015B01F8015B521EF9D5A142D8D3002065
:100EF00070BD0000F0B585B0002601960124029473
:100F00000220039080200090134F6946384600F07D
:100F10004BFB01222021384600F04BFC052007F056
:100F200015FB8021384600F035FC0C4D012810D00F
:100F30002E6000222021384600F03BFC052007F0FF
:100F400005FB01946946384600F02EFB286805B081
:100F5000F0BD2C60EDE7000000000240F000002032
:100F6000F0B585B000250020019001270297802070
:100F7000009002200390194E6946304600F014FBA1
:100F800001228021304600F014FC00246806050E82
:100F900001222021304600F00CFC052007F0D6FA93
:100FA0008021304600F0F6FB012815D000210D43CA
:100FB00000222021304600F0FCFB052007F0C6FA95
:100FC000641CE4B2082CE1D301976946304600F076
:100FD000EBFA05B02846F0BD0121E8E70000024029
:100FE00030B585B0044601200190022103910290A2
:100FF00080200090124D6946284600F0D5FA012C59
:1010000018D0002C14D100228021284600F0D1FBFA
:1010100001222021284600F0CCFB052007F096FA9B
:1010200000222021284600F0C4FB052007F08EFA9C
:1010300005B030BD01228021284600F0BAFBE7E769
:101040000000024070B505460024144E280605D560
:1010500001228021304600F0ACFB04E00022802118
:10106000304600F0A6FB6806050E0122202130461E
:1010700000F09FFB052007F069FA0022202130468E
:1010800000F097FB052007F061FA641CE4B2082C1D
:10109000DCD3BDE87040FFF72DBF00000000024028
:1010A00010B50E4C01228021204600F082FB012267
:1010B0002021204600F07DFB052007F047FA0022A2
:1010C0008021204600F075FB052007F03FFA2046FE
:1010D0000022BDE81040202100F06BBB0000024060
:1010E00010B50C4C00228021204600F062FB01224A
:1010F0002021204600F05DFB052007F027FA0122A1
:101100008021204600F055FBBDE81040052007F087
:101110001DBA000000000240FEE7000000B585B0E7
:101120004FF4006000900120019002200390694676
:10113000024800F039FA05B000BD0000000002408E
:101140002DE9F047002600250024DFF868904FF4D1
:10115000006A4FF001085146484600F01BFB00288A
:10116000F9D0282007F0F2F95146484600F012FB6A
:1011700001280BD0C4F1070008FA00F08643641C74
:10118000E4B2082CE7D33046BDE8F0870A4F03E00D
:1011900028466D1CB84205D25146484600F0FAFA7E
:1011A0000128F5D0C4F1070008FA00F0C0B20643E8
:1011B000E5E7000000000240FFFF0F0070B50446A5
:1011C000FFF7ACFF254E4FF400650022294630465C
:1011D00000F0EFFA122007F0ABF901222946304661
:1011E00000F0E7FA1E2007F0B1F900F039F82946BF
:1011F000304600F0CFFA08B1002070BD29463046D5
:1012000000F0C8FA0028F9D02946304600F0C2FAAA
:101210000128F9D0FFF794FF2070FFF791FF60706D
:10122000FFF78EFFA070FFF78BFFE070FFF788FFDE
:101230002071FFF773FF01222946304600F0B9FA0A
:1012400020786178E2780844A17811440844217933
:10125000884201D1012070BD002070BD0000024015
:1012600000B585B04FF4006000900020019001208F
:1012700002906946024800F097F905B000BD0000F1
:10128000000002407047000030B5B3F5804F05D034
:101290006FF0704140F82210002030BD8C690B685F
:1012A0008D6823434C688989240144EA052423433B
:1012B00043EA014150F82230024C2340194340F8E0
:1012C0002210E9E70000F0CF30B50A6850F822306C
:1012D00023F0010340F822308B68082B28D000222D
:1012E0004C681C43CB6813430A691C4314434A6986
:1012F0001443CA6914430A6A14434A6A14438A6A43
:101300001443CA6A14430A6B14438A6922434C6B20
:101310001443CB6B23430B4D0A6850F82240AC4377
:101320001C4340F822404A6BB2F5801F02D007E010
:101330004022D5E7096819B1016841F480110160C4
:10134000002030BD7FFF1F0030B5D1E9003443EAF3
:1013500004138C688D89240244EA054423430C8AD3
:10136000641E43EA04540B7D9B1E44EA03638C69AC
:101370002343521C50F8224004F04044234340F8D9
:1013800022300268D2020BD5426822F47002098A28
:10139000491E42EA0151426822F470020A43426047
:1013A000002030BDF0B50D68D1E90843CA69002DB1
:1013B00018D02243046824F4F84423431A430260FB
:1013C000D1E901231A43D1E9033423431A434B697A
:1013D00089691A430A4341686FF30E010A43426068
:1013E0000020F0BDD1E901563543D1E903673E4302
:1013F00035434E69896935430D43154325430168DB
:101400001D436FF30E010D430560E9E7426943F6A2
:10141000FE739A4342EA410141610020704770B572
:1014200005461446D1E9000210438A68C968521E75
:10143000520142EA4121084329696FF3150108432B
:10144000286100F0BDF9064609E0601C07D024B110
:1014500000F0B6F9801BA04201D9032070BDA86935
:101460008006F2D4002070BD30B5CB684C695B1E9D
:10147000641E002A20D01A03836842EA04521C4CDE
:1014800023401A4382600A684B68521E5B1E42EA80
:1014900003138A68521E43EA02230A8A097E521EF7
:1014A00043EA0242491E42EA0161C26802F0704208
:1014B0001143C160002030BD0A684D68521E6D1E88
:1014C00042EA05158A68521E45EA022242EA0333BF
:1014D0000A8A097E521E43EA024242EA0452491E27
:1014E00042EA0161826802F0704211438160E1E7E3
:1014F000FF0F0FFF2DE9F0410446A76D00F060F9E2
:10150000054694F835000026022806D08020606544
:1015100084F834600120BDE8F0812068016821F082
:10152000160101602068416921F080014161206C51
:1015300008B9A06C20B12068016821F008010160A1
:101540002068016821F0010101600BE000F038F92A
:10155000401B052806D92020343420620320607007
:101560002670D8E720680068C007EFD134343F20E8
:1015700094F828108840B860012060702670002020
:10158000C9E790F83510022903D080214165012078
:101590007047052180F835100068016821F00101CD
:1015A00001600020704700002DE9F84F0022DFF8AD
:1015B000B0914FF0010803274FF00F0C09F1040A16
:1015C000A9F1040B08FA02F50B682B40AB426ED16F
:1015D0000C7904F00304012C01D0022C15D186688B
:1015E000540007FA04FE26EA0E06D1F80CE00EFAC3
:1015F00004FE4EEA060EC0F808E04468AC430D79DC
:10160000C5F300159540254345600C79E443A407D4
:1016100008D0C568540007FA04F6B5438E68A640A2
:101620002E43C6600C7904F00304022C11D1D408B7
:1016300000EB8406356A5407E40E0CFA04FE25EA32
:101640000E05D1F810E00EFA04FE4EEA050EC6F8BB
:1016500020E00568540007FA04F6B5430E7906F059
:101660000306A6402E4306604C6814F4403F71D038
:101670003C4C256845F480452560246804F480448A
:101680000094394C22F003052E19D6F80858940717
:101690004FEA147E0CFA0EF4A543344CA04201D15B
:1016A00000242EE0324CA04202D1012429E051E076
:1016B000304CA04201D1022423E02F4CA04201D1A2
:1016C00003241EE02D4CA04201D1042419E02C4C2F
:1016D000A04201D1052414E02A4CA04201D10624E5
:1016E0000FE0294CA04201D107240AE0274CA04278
:1016F00001D1082405E0264CA04201D1092400E0D4
:101700000A2404FA0EF42C43C6F80848D9F800401D
:101710009C434D68ED0200D51C43C9F80040DAF83F
:1017200000409C434D68AD0200D51C43CAF8004000
:10173000DBF800409C434D68AD0300D51C43CBF85B
:101740000040074D083D2C689C434E68F60300D5C9
:101750001C432C60521C102AFFF434AFBDE8F88FF4
:10176000083C014044380240003001400000024083
:101770000004024000080240000C02400010024039
:101780000014024000180240001C024000200240E9
:10179000002402400069084201D001207047002067
:1017A0007047426921EA02030A4043EA024181612B
:1017B0007047002A01D08161704709048161704738
:1017C00001488068704700008C0000200248816852
:1017D00002781144816070478C00002010B50B48DE
:1017E000016841F400710160016841F480610160A9
:1017F000016841F480710160052000F0E3F90F20D9
:1018000000F006F800F0B0F9002010BD003C0240E6
:1018100070B504460D4D4FF47A712878B1FBF0F0A5
:101820000B490968B1FBF0F000F06EFF08B1012030
:1018300070BD102C07D200222146501E00F0A2F9E4
:101840006C60002070BD012070BD00008C00002085
:10185000000000202DE9F04104460F46154694F89B
:10186000A00001281ED0012684F8A060022084F880
:10187000A10005EB850000EBC50004EB80003830CB
:1018800034223946FEF745FD2A463946204601F006
:10189000E1FA2068466284F8A160002084F8A00084
:1018A000BDE8F0810220FBE770B50446002C04D0AF
:1018B00094F8A100002510B106E0012070BD84F865
:1018C000A050204600F06AF8022084F8A1002068A9
:1018D000816921F070418161D4E901100143D4E9AB
:1018E000030210430143206882691143816120682B
:1018F000826829490A408260A08A020420688368BD
:10190000A6693343134383602068C2680A40C260FB
:10191000A08B02042068C368266A33431343C36064
:10192000206802690A400261A08C020420680369F1
:10193000A66A334313430361206842690A40426147
:10194000A08D010420684269236B1A430A43426157
:1019500094F83500020294F8360001042068C36A46
:1019600003F07F43C3622068C36A94F83460114374
:1019700033430B43C3622068416B41F0060141636E
:101980002068816941F001018161C4F8A4500120FF
:1019900084F8A100002070BD00F800F030B587B0D9
:1019A0004048016841F080610160006800F080609B
:1019B00001903C481438016841F40001016001685D
:1019C00001F400010191016841F002010160016828
:1019D00001F002010191016841F0200101600168FC
:1019E00001F020010191016841F4807101600168FA
:1019F00001F480710191016841F480710160016816
:101A000001F480710191016841F0400101600168B9
:101A100001F040010191016841F08001016000681E
:101A200000F080000190202002900120039004909B
:101A30000320059002A91C48FFF7B6FD4FF480640F
:101A40000294022003900E20069002A91748FFF787
:101A5000ABFD60100290164D02A92846FFF7A4FDC9
:101A6000029402A92846FFF79FFD80210291114CA4
:101A700002A92046FFF798FD4FF40461029102A9E4
:101A80002046FFF791FD4FF47E41029102A90A48DA
:101A9000FFF78AFDF721029102A92846FFF784FD8E
:101AA00007B030BD44380240000402400014024038
:101AB0000020024000180240001C024070B504469D
:101AC000164608461A4694F8A01001291FD0012591
:101AD00084F8A050022184F8A11002EB820101EBEE
:101AE000C20104EB8101383108608B6A18444860F8
:101AF0008E60C86A3044C860204601F0ABF92068A7
:101B0000456284F8A150002084F8A00070BD022036
:101B100070BD70B50446164608461A4694F8A010E3
:101B200001291FD0012584F8A050022184F8A110BA
:101B300002EB820101EBC20104EB810138310B6839
:101B400003444B608B683344CB608862CE6220468E
:101B500001F080F92068456284F8A150002084F8E3
:101B6000A00070BD022070BD7047002809DB00F0A6
:101B70001F02012191404009800000F1E020C0F8DF
:101B800000117047F0B40D460D4B1B68C3F30223E0
:101B9000C3F10704042C00D90424191D072901D21C
:101BA000002300E0DB1E012606FA04F1491E29404D
:101BB00099409E40761E16403143F0BC01F02EBC89
:101BC0000CED00E000F00701054A10684FF6FF0336
:101BD000184040EA012003490843106070470000A4
:101BE0000CED00E00000FA052DE9F8431848016803
:101BF00041F080510160006800F080500090DFF8F3
:101C000054800127C8F84070FFF7DAFD05464FF40D
:101C10007A76114C07E0FFF7D3FD401BB04202D9A2
:101C20000320BDE8F8836068C003F4D5C8F84470A9
:101C3000FFF7C6FD054606E0FFF7C2FD401BB042B8
:101C400001D90320EDE760688003F5D50020E8E7BF
:101C50004038024000000E42007000402DE9F84F6D
:101C60000446DFF838A22068DFF834928D4DC107B2
:101C70004FF001084FF0000703D1810701D440065F
:101C80004DD5CAF86870FFF79BFD064607E0FFF7E1
:101C900097FD801B022802D90320BDE8F88F286831
:101CA0000001F4D42078C1077F4805D06168227A0A
:101CB000890141EA027101602178890713D5016821
:101CC000C1F302716268237B920142EA036242EA35
:101CD00001710160D9F80010E26921F01F01521E64
:101CE0001143C9F800102178490608D56168227BA4
:101CF000890141EA0261227A41EA02710160CAF86F
:101D00006880FFF75DFD064606E0FFF759FD801B82
:101D1000022801D90320C0E728680001F5D5206812
:101D2000410701D4000750D5CAF87070FFF748FD8D
:101D3000064606E0FFF744FD801B022801D9032078
:101D4000ABE72868C0438000F4D5207857494007A6
:101D500014D50868C0F302702269237D920142EA1B
:101D6000036242EA00700860D9F8000020F4F852DB
:101D7000206A401E42EA0020C9F8000020780007CF
:101D800012D50868C0F303602269920142EA00603C
:101D9000227E40EA02700860D9F80000616A20F4EF
:101DA00040300843C9F80000CAF87080FFF708FD0A
:101DB000064606E0FFF704FD801B022801D9032038
:101DC0006BE72868C0438000F4D42078800653D5A0
:101DD00034484030016841F080510160006800F0F3
:101DE00080500090324D286840F480702860FFF7E2
:101DF000E7FC064606E0FFF7E3FC801B022801D95A
:101E000003204AE72868C005F5D5274D143D28680A
:101E100000F44070F8B1218D01F4407181421AD074
:101E2000286820F440702349C1F800800F602860C2
:101E30002868C0070FD0FFF7C3FC064641F2883779
:101E400006E0FFF7BDFC801BB84201D9032024E760
:101E500028688007F5D5A06A1249C0F3012208312D
:101E6000032A12D0086820F4F81008602868218D31
:101E7000C1F30B01084328602078C00603D50E4942
:101E800094F82C000860002007E70A680B4B22F446
:101E9000F812184002430A60E8E7000000004742D9
:101EA0008C380240003802408438024088380240B2
:101EB00000700040400E4742E0114742FFFCFF0F18
:101EC0002DE9F04704460D46002C13D0DFF8289189
:101ED000D9F80000EFB200F00F00A8420CD289F848
:101EE0000070D9F8000000F00F00A84204D00120D3
:101EF000BDE8F0870120FBE72068404E810712D53E
:101F0000400703D5306840F4E05030602078000787
:101F100003D5306840F4604030603068A16820F03C
:101F2000F000084330602078C00731D03349606842
:101F30000839012808D002280BD0032809D00968E5
:101F400089070BD40120D3E70968890306D401204F
:101F5000CEE70968890101D40120C9E7316821F081
:101F6000030101433160FFF72BFC804641F2883AC0
:101F700007E0FFF725FCA0EB0800504501D903203E
:101F8000B6E73068616800F00C00B0EB810FF0D16B
:101F9000D9F8000000F00F00A84209D989F80070B4
:101FA000D9F8000000F00F00A84201D001209FE7FF
:101FB0002078400705D53068E16820F4E0500843F8
:101FC00030602078000706D53068216920F4604031
:101FD00040EAC100306000F03FF83168084AC1F3C0
:101FE0000311515CC8400749086007480068FFF7C3
:101FF0000FFC00207CE70000003C02400838024053
:10200000E815030800000020900000200148006847
:10201000704700000000002000B5FFF7F7FF0449FB
:102020000968044AC1F38221515CC84000BD000028
:1020300008380240F815030800B5FFF7E7FF044928
:102040000968044AC1F34231515CC84000BD000038
:1020500008380240F815030810B51748006810F05A
:102060000C01164816D0164B042912D0082911D19C
:10207000114C241F216801F03F02216849020AD552
:102080002068C0F38810A0FB03010023FEF70AF9C3
:1020900009E0184610BD21680023C1F38811A1FB97
:1020A0000001FEF7FFF82168C1F30141491C490016
:1020B000B0FBF1F010BD0000083802400024F4002D
:1020C00040787D012DE9F84F0446002C13D020788C
:1020D000DFF8A083C007A8F1040556D008F104007A
:1020E0000168C1F3810101290CD00068C0F38100AF
:1020F000022803D00DE00120BDE8F88FD8F80000D9
:10210000400206D5286880033FD5606870BB012077
:10211000F2E76068B0F5803F10D0B0F5A02F12D084
:10212000286820F480302860286820F48020286007
:102130006068E0B1FFF744FB064614E0286840F40D
:1021400080302860F4E7286840F480202860286800
:1021500040F480302860EBE7FFF732FB801B6428F7
:1021600001D90320C8E728688003F5D50DE0FFF703
:1021700027FB064606E0FFF723FB801B642801D9F6
:102180000320B9E728688003F5D42078BA4F800788
:102190004FF0000948D5B748001D016811F00C0F39
:1021A00008D00068C0F38100022813D1D8F80000DD
:1021B00040020FD42868800704D5E068012801D0C8
:1021C000012099E72868216920F0F80040EAC10061
:1021D000286029E0E068B8B101203860FFF7F0FA24
:1021E000064606E0FFF7ECFA801B022801D903201F
:1021F00082E728688007F5D52868216920F0F80073
:1022000040EAC10028600FE0C7F80090FFF7D8FA55
:10221000064606E0FFF7D4FA801B022801D9032006
:102220006AE728688007F5D42078000729D5DFF809
:1022300044A2924861690AF1700A89B101210160E2
:10224000FFF7BEFA064606E0FFF7BAFA801B02283F
:1022500001D9032050E7DAF800008007F4D510E038
:10226000C0F80090FFF7ACFA064606E0FFF7A8FAC0
:10227000801B022801D903203EE7DAF8000080071E
:10228000F4D42078400778D54FF0000A79483C30E4
:102290000068C0000BD477483C30016841F08051A1
:1022A0000160006800F0805000904FF0010ADFF8F4
:1022B000D0B1DBF80000C00514D4DBF8000040F416
:1022C0008070CBF80000FFF77BFA064606E0FFF7C8
:1022D00077FA801B022801D903200DE7DBF8000004
:1022E000C005F4D5634EA0686C3601280FD00528D0
:1022F00012D0306820F001003060306820F0040017
:102300003060A068F8B1FFF75BFA834617E03068E9
:1023100040F001003060F4E7306840F004003060C5
:10232000306840F001003060EBE7FFF749FAA0EBBE
:102330000B0141F28830814201D90320DCE630688C
:102340008007F2D510E0FFF73BFA834609E0FFF77C
:1023500037FAA0EB0B0141F28830814201D903200A
:10236000CAE630688007F2D4BAF1010F05D14148BE
:102370003C30016821F080510160A069C0B33D4943
:10238000091D09684FF0FF36C1F38101022946D0CB
:10239000022805D0C7F86090FFF712FA04463AE029
:1023A000C7F86090FFF70CFA814607E0FFF708FADC
:1023B000A0EB0900022801D903209DE628688001CE
:1023C000F4D4D4E907010843616AA26A890106EBE3
:1023D000520241EA0241084394F82C1040EA01609D
:1023E000C8F8000001203866FFF7EAF9044607E064
:1023F0003DE0FFF7E5F9001B022801D903207BE649
:1024000028688001F5D532E0FFF7DAF9001B0228D1
:1024100001D9032070E628688001F5D427E001285F
:1024200023D0D8F80000E26900F4800191421AD16B
:10243000226A00F03F01914215D147F6C071626AED
:102440000140B1EB821F0ED1A26A00F4403106EBCD
:102450005202B1EB024F06D194F82C1000F07060DC
:10246000B0EB016F03D0012046E6012044E60020D6
:1024700042E600000438024000004742800E474216
:102480000070004070B504460D46002C03D094F84F
:102490002C0010B107E0012070BD002084F82D0051
:1024A000204600F011F8022084F82C00211D20683D
:1024B000FEF778FFD4E900022946FEF7D5FF012098
:1024C00084F82C00002070BD00B587B02F4801684B
:1024D00041F001010160006800F0010001902B480B
:1024E0000838016841F004010160016801F004014D
:1024F0000191016841F008010160016801F00801E3
:102500000191016841F010010160016801F01001C2
:102510000191016841F020010160016801F0200192
:102520000191016841F040010160006800F0400045
:1025300001900D20029002200390012004900320BE
:1025400005900C20069002A91148FFF72DF84CF2D7
:102550000370029002A90F48FFF726F84FF6837028
:10256000029002A90C48FFF71FF84FF63F000290B7
:1025700002A90A48FFF718F848F23710029002A99A
:102580000748FFF711F807B000BD000038380240D7
:1025900000080240000C02400010024000140240FB
:1025A0000018024010B5044694F82C00022805D00B
:1025B00094F82C00012803D0012010BD022010BD8A
:1025C000022084F82C002068FEF720FF012084F808
:1025D0002C00002010BD70B504460D4694F82C0068
:1025E000022805D0012805D0052803D0012070BDA0
:1025F000022070BD022084F82C0029462068FEF7D6
:102600000EFF2868022803D0012084F82C0002E085
:10261000052084F82C00002070BD70B504460E46DD
:102620001546002C03D094F8490010B107E00120B2
:1026300070BD002084F84800204600F01DF804F129
:1026400008012068FEF740FE3146A2682068FEF7C8
:102650007BFED4E901022946236BFEF715FEA16833
:10266000206850F8212042F0010240F8212001208A
:1026700084F84900002070BD00B587B01848016893
:1026800041F001010160006800F001000190144870
:102690000838016841F008010160016801F0080193
:1026A0000191016841F010010160006800F0100024
:1026B00001904EF2B3700290022003900121049128
:1026C00005900C20069002A90648FEF76DFF4FF614
:1026D0008070029002A90448FEF766FF07B000BDB3
:1026E00038380240000C0240001002404FF0E02158
:1026F000042804D0086920F00400086170470869C4
:1027000040F004000861704710B5401EB0F1807FB2
:1027100001D3012010BD4FF0E02460610F2160174C
:1027200000F07CFE0020A06107202061002010BD89
:1027300070477047704770B50446206801694FF0D4
:102740000005C943890716D4C168C943890712D453
:10275000E91E01610120207720688069800703D08D
:102760002046FFF7E7FF05E0204600F09BF82046F3
:1027700000F099F8257720680169C943490718D402
:10278000C168C943490714D46FF0040101610220F4
:1027900020772068806910F4407F03D02046FFF73F
:1027A000C9FF05E0204600F07DF8204600F07BF8E8
:1027B000257720680169C943090717D4C168C9434F
:1027C000090713D46FF00801016104202077206805
:1027D000C069800703D02046FFF7ACFF05E0204624
:1027E00000F060F8204600F05EF825772068016967
:1027F000C943C90618D4C168C943C90614D46FF0C7
:1028000010010161082020772068C06910F4407F22
:1028100003D02046FFF78EFF05E0204600F042F887
:10282000204600F040F8257720680169C943C907B0
:1028300008D1C168C943C90704D1891E0161204676
:1028400000F032F820680169C943090609D4C1685B
:10285000C943090605D46FF0800101612046FFF7E6
:1028600067FF20680169C943490609D4C168C943A3
:10287000490605D46FF040010161204600F015F8CB
:1028800020680169C94389060BD4C168C943890618
:1028900007D46FF0200101612046BDE87040FFF7CA
:1028A00048BF70BD704770477047704770477047AA
:1028B000F8B5044622681068D168536900F00F0625
:1028C000002E08D1850606D58D0604D52046BDE824
:1028D000F84000F0D5BB0025002E66D003F00106BD
:1028E00001F49077374360D0C20705D0CA0503D5FD
:1028F000226C42F001022264420705D5DA0703D0B8
:10290000226C42F002022264820705D5DA0703D066
:10291000226C42F004022264020707D501F0200273
:10292000324303D0226C42F008022264226C002A57
:1029300031D0800604D5880602D5204600F0A0FBE1
:1029400020684069C0F38010216C090700D438B3B7
:10295000204600F061FB2068406940061CD52068D5
:10296000143050E8001F21F0400140E80012002A16
:10297000F5D1A06B60B157490165A06BFEF701FE70
:10298000002808D0A06B016D01B0BDE8F0400847F9
:102990002046FFF78CFFF8BD2046FFF788FFF8BD03
:1029A0002046FFF784FF2564F8BD236B012B7ED101
:1029B000C3067CD5CB067AD5106850680090506964
:1029C0004FF02003400643D5A16B0868406880B2F1
:1029D0000028E9D0A28D8242E6D9E085C869B0F529
:1029E000807F2DD020680C3050E8001F21F48071CA
:1029F00040E80012002AF5D12068143050E8001F8A
:102A000021F0010140E80012002AF5D120681430BD
:102A100050E8001F21F0400140E80012002AF5D1E3
:102A200084F83E30256320680C3050E8001F21F008
:102A3000100140E80012002AF5D1A06BFEF75AFD04
:102A4000A08DE18D401A81B22046FFF72FFFF8BD1F
:102A5000A08DE18D401A81B2E08D0028F7D00029C9
:102A6000F5D020680C3050E8002F22F4907240E836
:102A70000026002EF5D12068143050E8002F22F0F7
:102A8000010240E80026002EF5D184F83E3025638F
:102A900020680C3050E8002F22F0100240E800239C
:102AA000002BF5D12046FFF701FFF8BDFFE7020636
:102AB00006D50A0604D52046BDE8F84000F0ECBB78
:102AC0004006F2D54806F0D52046BDE8F84000F0B3
:102AD000CABA00000930000870B50446002C04D0C2
:102AE00094F83D00002510B106E0012070BD84F887
:102AF0003C50204600F022F8242084F83D00206855
:102B0000C16821F40051C160204600F01DFB20681F
:102B1000016921F4904101612068416921F02A0195
:102B200041612068C16841F40051C16025642020E2
:102B300084F83D0084F83E00002070BD2DE9F0438C
:102B400087B081463D49D9F800003D4C0225072653
:102B50003C4F4FF00108884233D13949143108689D
:102B600040F010000860086800F010000190206834
:102B700040F001002060206800F001000190206812
:102B800040F001002060206800F00100019048152D
:102B900002900395CDF810800595069602A9384657
:102BA000FEF702FD20150290069602A93846FEF7B0
:102BB000FBFC2520FEF7D9FF032211462520FEF756
:102BC000E1FF2149D9F80000884233D11C49103176
:102BD000086840F400300860086800F40030019094
:102BE000206840F001002060206800F001000190A2
:102BF000206840F001002060206800F00100019092
:102C0000042002900395CDF810800595069602A940
:102C10003846FEF7C9FC08210291069602A93846FB
:102C2000FEF7C2FC2620FEF7A0FF04220321262087
:102C3000FEF7A8FF07B0BDE8F083000000100140D8
:102C400030380240000002400044004090F83E301E
:102C5000202B01D00220704759B152B190F83C307E
:102C6000012B08D0012380F83C300023036300F0DF
:102C7000F5BA0120704702207047000070B5064683
:102C80002B48316800252B4C814229D1A1880804AA
:102C900018D404F102004B04027807D50A2A01D0A7
:102CA000A5800FE041F40040A0800BE00D2A22D067
:102CB000214BC1F30D001A54491C89B2A180C729C8
:102CC00000D9A5801B491C480122891CC830FFF788
:102CD000BDFF184918480122891CC8302DF082F91F
:102CE00016493068884221D11548007820700122A9
:102CF0007B2804D004E041F48040A080E2E76270C9
:102D0000617861B1E188EC2905D24A1CE2800A4A67
:102D1000EC3A505403E0E5800A4802706570BDE863
:102D20007040012206490848FFF790BF70BD0000BF
:102D30000010014074000020F8040020004400400E
:102D40008800002004000020040600202DE9F8433C
:102D500004460E4615461F4694F83D00202802D032
:102D60000220BDE8F883C6B1BDB194F83C0001284B
:102D700015D0012084F83C004FF00009C4F84090C1
:102D8000212084F83D00FEF71BFD8046A584E584E4
:102D9000A068B0F5805F04D005E00120E1E70220E3
:102DA000DFE7206920B13546002684F83C9013E027
:102DB0000025FAE74346002280212046009700F0D4
:102DC0009AFA08B10320CCE79DB1216815F8010BF0
:102DD0004860E08C401EE084E08C0028EAD1434645
:102DE000002240212046009700F085FA40B10320E0
:102DF000B7E736F8020B2168C0F308004860E8E73F
:102E0000202084F83D000020ABE77047FEE700007B
:102E100000B587B00D48016841F00201016000680B
:102E200000F0020001900120039004900220059020
:102E3000A020029002A90648FEF7B6FB012000F090
:102E4000BAF8B42005F074FB07B000BD303802407A
:102E500000000240F0B503688C88DD68C5F30B45BF
:102E60002C442504882404EBC2141E5906F4704631
:102E70001E5103680F68DE68C6F30B46761C3E449D
:102E80002E431E5103688C89DD68C5F30A052C4466
:102E900025048C2404EBC2141E5906F470461E51FE
:102EA00003688F68DE68C6F30A06761C3E442E432C
:102EB0001E519423046803EBC213E55825F007055F
:102EC000E55005680C69EC5091F831304FEA032C5D
:102ED00091F832301E040B7E1F069C23046803EB1E
:102EE000C213E5580025E55091F830403E4344EACE
:102EF0000C0434430668F4509823046803EBC213AF
:102F0000E65826F0FF06E65006684C69F450A02308
:102F1000046803EBC213E65840F20777BE43E6505D
:102F2000D1E9074634430668F450AC23046803EB48
:102F3000C213E658E55005684C6AEC500B69002B4B
:102F400031D0012B31D0042B31D0022B2FD0032BC9
:102F50002DD0072B2BD00123B024056804EBC2141D
:102F60002E5906F0E0262E51D1E90065AD1B5D43D8
:102F70000E8DED1C5E4345EA064305682B51B423D4
:102F8000046803EBC213E5586FF30A05E5500468C3
:102F9000C96AE1500068842101EBC211425842F035
:102FA00001024250F0BD0423D6E70323D4E70223F5
:102FB000D2E7FEE7704710B50446FEF771F84620E9
:102FC000FEF740F82046FEF73DF8BDE81040FEF75A
:102FD00087B810B5FEF7FAFB2EF03CF8012803D0B5
:102FE000BDE810402DF02ABE10BD00000248016867
:102FF00041F470010160704788ED00E00148FFF77F
:103000009ABB0000A407002010B5806B0021C18589
:10301000C184FFF74CFC10BD01680C3151E8002F52
:1030200022F4907241E80023002BF5D1016814319D
:1030300051E8002F22F0010241E80023002BF5D1D6
:10304000016B012909D101680C3151E8002F22F0F0
:10305000100241E80023002BF5D1202180F83E101A
:1030600000210163704710B50168CA6822F0400270
:10307000CA60202180F83D10FFF7C7FE002010BD78
:1030800008B590F83E10222901D0022008BD8268C0
:103090004FF480539A4201D1016921B1816A9A4269
:1030A0001DD052B10BE0816A02685268C2F3080277
:1030B0000A80816A891C816209E002697AB102682A
:1030C000526802F07F020A70816A491C8162C18DD8
:1030D000491E0904090CC18505D0002008BD0268FD
:1030E00052680A70F0E70168CA6822F02002CA60DC
:1030F0000168CA6822F48072CA6001684A6922F0D5
:1031000001024A61202180F83E10016B012903D0A1
:10311000FFF7B4FD002008BD0021016301680C31F8
:1031200051E8002F22F0100241E80023002BF5D1D6
:1031300001680A68D20602D50A6849680091818D43
:10314000FFF7B4FBE6E700002DE9F04104462068F4
:103150000169E26821F4405111430161A1682069CD
:10316000E26901436069104301432068C26849F283
:103170000C639A430A43C26020684169A26921F442
:1031800040711143416133492068884202D032497D
:10319000884202D1FEF750FF01E0FEF73DFFE169F2
:1031A0000023192764253226B1F5004F28D0616825
:1031B0008B0F8A00A0FB0701FDF774F80146B0FBF6
:1031C000F5F07A42504301EB800006EB0010B0FBB3
:1031D000F5F000F0F002B1FBF5F002EB0012B1FBEC
:1031E000F5F07B42584301EB800006EB0010B0FB8A
:1031F000F5F0216800F00F0010448860BDE8F08110
:1032000061684A18A0FB07015B41FDF74BF80146D6
:10321000B0FBF5F00201B1FBF5F06FF01803584375
:1032200001EB800006EBC000B0FBF5F000F0F80009
:1032300002EB4002B1FBF5F0584301EB800006EBD6
:10324000C000B0FBF5F0216800F007001044886072
:10325000D4E7000000100140001401408162828523
:10326000C28500210164222280F83E2080F83C10B3
:103270000169002904D00168CA6842F48072CA60FA
:1032800001684A6942F001024A610068C16841F080
:103290002001C1600020704790F83D10212901D025
:1032A000022070478168B1F5805F01D1016961B189
:1032B000016A4A1C0262026809785160C18C491E89
:1032C0000904090CC1840AD013E0016A0268098864
:1032D000C1F308015160016A891C0162EEE70168CF
:1032E000CA6822F08002CA600068C16841F04001EB
:1032F000C160002070472DE9F04104460E46174694
:103300009846069D25E0681C23D02DB1FEF758FA9B
:10331000A0EB0800A8421CD920680C3050E8001F20
:1033200021F4D07140E80012002AF5D12068143051
:1033300050E8001F21F0010140E80012002AF5D1F9
:1033400020203C346070A070002020700320BDE875
:10335000F0812068006836EA000004D00020B842FE
:10336000D1D00020F3E70120F9E700000148FFF782
:103370009FBA0000C00500200148FFF799BA00007D
:1033800004060020FEE700000FB4024610B504A9B1
:10339000034B039801F0FEFF10BC5DF814FB000026
:1033A000D10701080FB4054B10B503A9044A0298D0
:1033B00001F0F0FF10BC5DF814FB0000D10701081C
:1033C0007C0000200FB41CB50246002007AC002989
:1033D0000BD0491ECDE90021054B6A4621460698CF
:1033E00001F0D8FF009A002111701CBC5DF814FB9D
:1033F000C35A00080FB4084B10B504A902AA0398D9
:1034000001F0C8FF044602A9002002F065FB204637
:1034100010BC5DF814FB0000D95A00080907090E1A
:10342000002804DB00F1E02080F80014704700F071
:103430000F0000F1E02080F8141D704730B528B16E
:10344000144C031F002021680A4605E0084630BDE1
:103450009A4203D810465268002AF9D1002800D0B9
:1034600041680BD00468A3EB0005A54204D11B689A
:103470001C440346046002E0436000E023603AB16C
:103480001C68D51AA54203D115682C441C605268EB
:103490005A6030BDC803002000B583B09FED060B15
:1034A0000A4601468DED000B6846FDF7E0FB9DEDF9
:1034B000000B03B000BD0000000000000000000091
:1034C0002DE9F04782460F4C10480D4E0E4F001B61
:1034D0004FF0000820F007054FF0010900221146C7
:1034E00050460FF0A7FE002802D1306810B100202E
:1034F000BDE8F0873C60C4E90058C6F80090EDE7ED
:10350000CC03002024AD0120C803002020ED0120C1
:1035100002E008C8121F08C1002AFAD1704770479C
:10352000002001E001C1121F002AFBD1704770B5D5
:10353000044600256FF02F0608E02068411C21603A
:10354000007805EB850106EB4101451820680078FD
:1035500000F0C6F80028F0D1284670BD2DE9FF5FC5
:1035600082B00021DDE90430020DDDF840B00343F4
:1035700018D044F61050A2F2FF32424315141198AD
:1035800001281FD0A5EB0B00401C5FEA000A4FF09A
:1035900000064E4FDFF83891B046504615D5CAF1B7
:1035A000000413E0119801244AA3012801D16FEA15
:1035B0000B010298119AC0E90031C0E9024206B03D
:1035C000BDE8F09FCBF10000DFE704460021404A50
:1035D000491842EB0450CDE9001012E0E00707D093
:1035E00032463B4640464946FDF73BF98046894610
:1035F00032463B4610461946FDF733F906460F465C
:103600006410002CEAD1DDE90401DDE90023BAF100
:10361000000F06DAFDF725F942464B46FDF721F982
:1036200005E0FDF790F942464B46FDF78CF904465C
:103630000E460022284BFDF763FA03D84FF0FF3007
:10364000014607E00022254B20463146FDF762F88F
:10365000FDF7E0FB102409E0002C0ADB0A2200231E
:10366000FCF720FE039B30321A55641E50EA01021B
:10367000F2D1641C039AC4F111031444119A012A73
:1036800003D0012208430DD10AE0084304D00020F2
:103690004FF0110B119072E7A3EB0B056D1E0DE0BF
:1036A0005B4504DD4FF0000205F1010504E003DA9B
:1036B0004FF00002A5F10105002AECD00298119903
:1036C000C0E90231C0E9004579E70000000014407C
:1036D0000000F03F300000000000F0430000E03F39
:1036E0003038092801D80120704700207047303851
:1036F0000A2801D2012070470020704710B54021F0
:10370000074801F0E9F800220421064825F0ECFA08
:10371000054CA06002F0DEFD0020207010BD00000E
:1037200050F300207D6300084C03002070B5B1F910
:103730000040B2F900309C4200DD23460380B1F91D
:103740000240B2F90250AC4200DC2C464480B1F990
:103750000460B2F90450AE4200DA35468580B1F912
:103760000610B2F90620914200DB1146C18001200B
:10377000AB4201DC8C4200DD002070BDF8B5044690
:103780000D4616460020B4F90010B5F9002091420C
:1037900012DBB4F90220B5F902309A420CDBB4F91D
:1037A0000420B5F904309A4206DCB4F90620B5F9D4
:1037B00006309A4200DC012088B38EB3ADF80010C9
:1037C0006088ADF8020032466946284600F0ACF841
:1037D00038B3A088ADF800006088ADF8020032462A
:1037E0006946284600F0A0F810B32088ADF8000024
:1037F000E088ADF8020032466946284600F094F8A9
:10380000C0B1A088ADF80000E088ADF802003246F3
:103810006946284600F088F870B10120F8BD01E043
:1038200002E003E00020F9E70120F7E70020F5E7D8
:103830000020F3E70020F1E70020EFE7B0F90020D7
:10384000B1F904309A4213DCB0F90420B1F9003028
:103850009A420DDBB0F90220B1F906309A4207DC3A
:10386000B0F90600B1F90210884201DB012070476F
:1038700000207047F8B504460D461646B4F904001A
:10388000B5F90010884211DBB4F90600B5F9021051
:1038900088420BDBB4F90000B5F90410884205DC5E
:1038A000B4F90210B5F90620914201DD0120F8BDFE
:1038B00066B1ADF800006088ADF802003246694696
:1038C000284600F031F818B10020F8BD0020F8BDFE
:1038D000A088ADF800006088ADF802003246694665
:1038E000284600F021F808B10020F8BD2088ADF886
:1038F0000000E088ADF8020032466946284600F034
:1039000013F808B10020F8BDA088ADF80000E088E9
:10391000ADF8020032466946284600F005F808B1C5
:103920000020F8BD0120F8BD2DE9FC4105460F46F9
:1039300014460020B7F90010B5F9002091420EDBC3
:10394000B5F9042091420ADCB7F90210B5F902205A
:10395000914204DBB5F90620914200DC012020B140
:10396000002C04DC0120BDE8FC810020FBE7284698
:1039700014F044FE00EBD0704610284614F0EDFD24
:1039800000EBD0704010864200DA3046844200DD01
:1039900004462888ADF8000028882044ADF80400CB
:1039A0006888ADF8020068882044ADF8060000225F
:1039B00039466846FFF7B8FF70B1BDF804002044EF
:1039C000ADF80400BDF806002044ADF80600394605
:1039D000684622F03CF9C6E7E888001BADF8020013
:1039E000E888ADF80600002239466846FFF79CFFDC
:1039F00070B1BDF804002044ADF80400BDF8020029
:103A0000001BADF802003946684622F020F9AAE70B
:103A1000A888001BADF80000A888ADF804000022BB
:103A200039466846FFF780FF70B1BDF80000001B03
:103A3000ADF80000BDF80200001BADF802003946E9
:103A4000684622F004F98EE76888ADF802006888BD
:103A50002044ADF80600002239466846FFF764FFAF
:103A600070B1BDF80000001BADF80000BDF8060005
:103A70002044ADF806003946684622F0E8F872E7BF
:103A8000012070E710B5B1F90030B2F90040A3424F
:103A900000DB23460380B1F90230B2F90240A342B1
:103AA00000DB23464380B1F90440B2F904309C4264
:103AB00000DD23468380B1F90610B2F90620914259
:103AC00000DC1146C18010BD2DE9FF41074625F0FD
:103AD000B8F8064600250395344C2FB1F8686060AD
:103AE000384625F0D7F902E016F06CFF6060606898
:103AF000006922F039F86068406908B122F034F8B2
:103B00006068C06922F030F86068006A22F02CF822
:103B100060680169F1B322F0F1FA22F063FA60689B
:103B2000B0F8501199B30168097C890715D516F0D2
:103B3000B0FF401E07B2606816F05AFF401E03B285
:103B40000022114601A8009714F08AFD606801A9BF
:103B50000268926B516005F035FD60684FF480712A
:103B600030301DF0D4FB6068202100F598701DF006
:103B7000CEFB6068A0F85051304625F057F803900E
:103B800060680068436A13B12268039998471DF082
:103B9000F9F900E005E000F035F8BDE8FF4100F07C
:103BA00007B8A0F85051BDE8FF810000E8010020EF
:103BB00070B50024084EC4EBC40556F8250008B1C2
:103BC0001DF056FA06EB85001C211DF0A0FB641CBD
:103BD000E4B2042CEFD370BD2CF4002008494968EE
:103BE0000AE04A68824202D00A68824203D10A7E11
:103BF00042F001020A7649690029F2D170470000BB
:103C0000BC010020704700000421014800F064BEA0
:103C100044F300201C21014800F05EBE5CF300204C
:103C20002DE9F04F85B00446DDE90E06002B02D1E8
:103C3000B0F5807F7DD0B6F900504FF0FF376D4270
:103C4000454307EB25252DB22580B6F902C0CCF1FE
:103C5000000C0CFB00FC07EB2C273FB26780B6F989
:103C600000C0A1EB0C0141434FF0020C0CEB2121F1
:103C700009B2A180B6F90280A2EB080242430CEB24
:103C8000222000B2E080002B7DD04FF00A0993FB88
:103C9000F9F505F10108684200EB800003EB4007ED
:103CA00028B225F03FFA82460FFA88F025F03AFA5A
:103CB00083465A3528B225F035FA054608F15A08E8
:103CC0000FFA88F025F02EFA0146C7F10A0000FB32
:103CD0000AF20BFB072292FBF9F2684301FB070093
:103CE00090FBF9F057114FEA601CB4F90000B4F9E9
:103CF00002300CFB00FE07FB13E1B6F8009009EB65
:103D0000A1210DB2ADF80C5007FB00F20CFB032013
:103D1000B6F802A00AEBA02001B2ADF80E10B4F97B
:103D200004600CFB06FB07FB13B009EBA02000B2FC
:103D300000E031E0ADF808007E430CFB03630AEBC2
:103D4000A3231BB20496ADF80A30B4F9068007FB32
:103D500018E609EBA62636B2ADF804600CFB082283
:103D60000AEBA22212B2ADF8062007FB18B709EB46
:103D7000A7273FB2ADF80070DDF810900CFB089C4F
:103D80000AEBAC2C00E011E00FFA8CFCADF802C09D
:103D9000AE4218DAB04617E0002020806080491E4D
:103DA000A180521EE28005B0BDE8F08F32882A441F
:103DB000228072883A44628032881144A1807188DE
:103DC0000844E080EFE7A846874201DAB94600E000
:103DD0008146C84505DAAE4201DAB04606E0A8469B
:103DE00004E0874201DAB84600E08046A4F800808B
:103DF000AE4201DDB04600E0A846874201DDB9468B
:103E000000E08146C84505DDAE4201DD304604E0F4
:103E1000284602E0874200DD3846A0808A4201DA67
:103E2000104600E008469C4501DA654600E01D4664
:103E3000A84205DA8A4201DA104606E0084604E0A4
:103E40009C4501DA604600E0184660808A4201DD48
:103E5000104600E008469C4501DD654600E01D4631
:103E6000A84203DD8A4206DD114604E09C4501DDDF
:103E7000614600E01946E18095E72DE9FF5F0446C1
:103E8000D4F800B0B4F90800081AB4F90A10511AAD
:103E9000E589D4E90932B5F5807F1FD0A5895DB3E6
:103EA000A56B684340114D436911256BE66A05FB1C
:103EB00000F706FB117703EBA729464305FB0160DA
:103EC00002EBA02A4FEA29254FEA2A26B4F904007A
:103ED000A8421BDC002004B0BDE8F09F256BE66A19
:103EE00005FB00F706FB117703EBA709464305FB2B
:103EF000016002EBA00AE5E7A56B684340114D4362
:103F0000691103EB000902EB010ADBE7002D01DA7E
:103F10000020E0E7B4F90610B14201DC0020DAE746
:103F2000002E01DA0020D6E794F834104A0723D592
:103F3000890704F114030CD44FF0020871004843C0
:103F400005FB08070BEB0701424618461DF091F9E7
:103F500028E04FF0030806EB4601484305FB08073D
:103F60000BEB0701022218461DF083F9F81C584498
:103F700010F8010CA07515E00027B84632B223698D
:103F800004F11800CDE9020229B28B461AF0DCFBDD
:103F90000190BDF80400A082DDE9020259461AF042
:103FA00061FBA07594F83400C0070CD04FF4FC609E
:103FB0000090BDF800000190A08ABDF8041088426E
:103FC00001D1002087E7E07C80B1A4F83C90A4F800
:103FD0003EA0A4F84050A4F84260676484F848808A
:103FE00004B02046BDE8F05F00F002B8012072E79F
:103FF0002DE9F04F89B00446D4F800B094F83C1095
:1040000094F83E004FF0FF36702909DA3546B4F9CE
:104010004020012A00D50025803101F0FF0813E07F
:1040200090290EDD0125B4F94020B4F90430521C6A
:104030009A4200DB0025A1F27F11494201F0FF08FE
:1040400002E000254FF0FF08702807DAB4F94210AB
:10405000012900D500268030C7B211E090280DDD7F
:104060000126B4F94210B4F90620491C914200DB44
:104070000026A0F27F104042C7B201E00026FF27D1
:1040800060690890A07D04904FF0000AD14600209E
:10409000039094F83400400745D594F84810606CBC
:1040A000022201FB050000EB0B0107A81DF0E1F85F
:1040B000A08894F8481010FB01F0616C022206FB06
:1040C000001000EB0B0106A81DF0D3F8A18894F8AE
:1040D000480011FB00F1626C00FB05B006FB0121FA
:1040E0000144022205A81DF0C4F894F834008007AA
:1040F0005FD594F84800626C00EB0B0100FB0523D0
:104100000B4413F801ACA38813FB00F306FB032256
:10411000114411F8019C00FB05001044584410F8AC
:10412000010C039045E0B4F84000B4F94220284463
:1041300001B204F11800834623691AF005FB0790C9
:104140001034608EB4F93010304402B258462368FF
:104150001AF0FAFA0690608E2368304402B2208E7C
:10416000284401B258461AF0EFFA059094F824005A
:10417000103C80071DD540342088B4F90220284423
:1041800001B258461AF06EFA82466088B4F90010FF
:10419000304402B258461AF065FA814660883044CD
:1041A00002B234F84009284401B258461AF05AFACB
:1041B0000390424694F83400800738D50498C8F13B
:1041C000FF0100FB08F00AFB0100C0F30720039D7C
:1041D00009FB08F305FB0131C1F3072100FB07F3DD
:1041E000C7F1FF0501FB05331B0AA375022805D89B
:1041F000022903D8002009B0BDE8F08F022800D8BA
:104200000027022900D8FF270498022800D800229E
:10421000BAF1020F00D8FF22B9F1020F01D84FF016
:1042200000080398022804D84FF0FF0801E0FF209F
:10423000A07502B3FF2A21D0DDE9071015F0AEFF0B
:104240000290B8F1000F1CD0B8F1FF0F1CD0DDE9CF
:104250000510424615F0A2FF0190C7B1FF2F1AD0FA
:10426000DDE901103A4615F099FF0090BDF8000015
:10427000A0820120BFE707980290E2E70898029029
:10428000DFE705980190E8E706980190E5E7BDF8BB
:104290000400A082EDE7BDF80800A082E9E72DE95F
:1042A000F05F0446B4F9080000026062B4F90A0045
:1042B0000002A062B4F90C004FF00A0890FBF8F578
:1042C0006F1C694201EB810100EB4106684200B2BC
:1042D00024F028FF8146784200B224F023FF824672
:1042E000C5F15A0000B224F01DFF8346C7F15A0001
:1042F00000B224F017FF0146C6F10A0000FB09F2E4
:104300000AFB062292FBF8F200FB0BF001FB060011
:1043100090FBF8F05111E16240112063A07C1AF08B
:10432000CBFA94F8341060F3000184F83410A07CC8
:104330001AF0B2FA94F8341060F3410184F83410A2
:10434000A07C042823D0052821D006281FD021F0E6
:10435000040184F8341021682162A16921F0E00190
:1043600060F30401A08860F39421E08860F35F515A
:10437000A161E0894FF4001101EB5001B1FBF0F0B5
:10438000A063FF20A075208AA082BDE8F09F41F0C5
:10439000040184F83410DEE7F7B506461746114CE1
:1043A00024F04FFC05463B4631462046019A1AF060
:1043B00033FE20B10020A062E06948B10CE02C215E
:1043C00020461CF0A4FF4FF00040A0620020FEBD7C
:1043D000284624F02BFCE061E06908B90120E06187
:1043E0002046FEBD80F3002010B514210C4800F0DB
:1043F00073FA1AF0D1FD02468AB10A4910461AF042
:1044000084FE094910461AF082FE084910461AF047
:1044100080FEBDE81040064910461AF074BEFEE763
:1044200068F3002075E9010869ED010801EF010852
:1044300041E9010870B504460D46102128461CF0DC
:1044400066FF20680078012804D0022807D00428DD
:1044500008D009E0208A2880608A688004E0E0684B
:10446000686001E00A20686020684268002A03D082
:104470002946BDE87040104770BDFEB50446A56AE8
:10448000002D18D1A08A218A0844A082E08A618A7E
:104490000844E08220460BF072FC0546280072D0EA
:1044A00020460EF0B7FD00220921284619F0D6FA61
:1044B0006078800767D4208A10B9608A002862D0AB
:1044C00000260296019694F83C0000F00F000328A5
:1044D00016D028461EF0FAFD074628461EF0A6FC18
:1044E00003460C200090B4F912103A4628460AF010
:1044F000E3FF019028461EF0EBFCC10712D016E046
:1045000028461EF071FD074628461EF00BFD0246A8
:1045100003200090B4F910103B4628460AF0CCFF67
:104520000290E7E7BDF90810002900DD0296810737
:1045300004D4BDF90810002900DA0296410704D41A
:10454000BDF90410002900DD0196000704D4BDF96F
:104550000400002800DA019601AA02A9204627F0EB
:104560000EFE0023BDF90420BDF90810284620F0F6
:1045700083FEA08ABDF808100844A082E08ABDF836
:1045800004100844E082FEBD2DE9FC5F0446D4F827
:104590002880B8F1000F7DD094F83C00000779D056
:1045A0001BF01AF8019001980068467E40214046B1
:1045B0001FF067FD002708B96783278340461EF078
:1045C00073FD814640461EF078FD054694F83C0098
:1045D000642100F00F0041F6FF7ACAF1000B0C28AD
:1045E00002D003283DD05CE02783D5B1204627F0D8
:1045F0000FFE009067836A460021204627F0BFFD2A
:10460000BDF900305246594640460BF039FDBDF821
:1046100000100123084402B20021404620F02CFE85
:104620003FE0B4F91A00C6F16402504390FBF1F088
:10463000608340461EF0FAFB064640461EF046FDEB
:1046400002460C200090B4F91A10334640460AF096
:1046500033FF6083024600231946404620F00CFEDB
:104660001FE06783B9F1000F23D0204627F0B9FD82
:104670000090278300226946204627F080FDBDF97F
:1046800000305246594640460BF072FCBDF800100F
:10469000084400E078E001B201230022404620F007
:1046A000EBFD208B00286FD1608B00286CD105B307
:1046B0003CE0B4F91800C6F16402504390FBF1F0FD
:1046C000208340461EF02EFC064640461EF08CFC21
:1046D000034603200090B4F91810324640460AF011
:1046E000EBFE2083014600231A46404620F0C4FD1D
:1046F000D7E740461EF0EAFC054640461EF096FB12
:10470000002D01DC002811DD002D06DA01232A46E8
:104710000021404620F0B0FD08E0002806DA4042C3
:1047200002B201230021404620F0A6FDB9F1000F9E
:104730001CD140461EF0F6FB054640461EF054FCD8
:10474000002D01DC002811DD002D06DA01230022F6
:104750002946404620F090FD08E0002806DA404255
:1047600001B201230022404620F086FD0A21404686
:10477000019A19F073F96078800705D42834207DF8
:1047800020F00F0020752760BDE8FC9F7FB5044630
:104790000D46002C02D116F015F90446002C28D045
:1047A00000263DB3ADF80860ADF80A60204616F06B
:1047B0001FF9401EADF80C00204616F06AF9401EA5
:1047C000ADF80E0002AA29466846FEF7AFFF0028A2
:1047D0000FD02068017C89070FD5DDE90201C4E90B
:1047E0000C010120A4F850016068002801D024F0D9
:1047F0005DFB7FBDA4F850617FBD82690AB1694647
:10480000904700250AE004EBC501303100226846DC
:10481000FEF7B4FF0028EFD16D1CADB2B4F8500123
:10482000A842F0D8B4F85001202806D204EBC0000A
:104830003030694613F022FE06E0A4F8506104F11E
:10484000300002A913F01AFEB4F85001401CA4F87D
:10485000500160680028CFD024F028FB7FBD70B5E0
:104860000646304600F012F804460CE02146304679
:1048700000F023F805462146304600F07EF8204639
:104880001CF0F6FB2C46002CF0D170BD002801D0A6
:10489000406870470020704700B503460022184664
:1048A000FFF7F4FF014604E0521C184600F005F83B
:1048B00001460029F8D1104600BD0068091D0844D2
:1048C000006870470068084400687047002801D0FD
:1048D0008068704700207047002242608260C91CD7
:1048E00021F003010160704770B50446206808306C
:1048F0001CF032FB05469DB100222946204625F0DA
:10490000AEFC29462046626825F0A0FC616819B11A
:104910002A46204625F0A3FC6560A06800B9A56082
:10492000284670BD70B50446206808301CF014FBA2
:1049300005469DB100222946204625F087FC2946E0
:104940002046A26825F08BFCA16819B12A462046B2
:1049500025F07CFCA560606800B96560284670BDE4
:10496000002802D0416811B103E00120704780683F
:1049700008B1002070470120704770B504460B460F
:10498000002C13D02046FFF781FF002298420ED161
:1049900019462046FFF791FF606030B1014620467E
:1049A000BDE87040002225F05ABCA26070BD2046D0
:1049B000FFF78CFF98420ED119462046FFF782FF81
:1049C000A06030B101462046BDE87040002225F0CD
:1049D0003DBC626070BD19462046FFF773FF054677
:1049E00019462046FFF769FF06463246294620460B
:1049F00025F02CFC2A4631462046BDE8704025F0C3
:104A00002EBC10B50446206882680AB12146904742
:104A100020680068002801D02060F4E710BD80689D
:104A2000002802D0B0F9160070470020704700003F
:104A30002DE9F04792B005461A9C0F4691461E4656
:104A4000688C40F004006884A5F8209022893946DB
:104A500028461FF097F9824611902E842289394604
:104A600028461FF08FF980461090698C21F00401D0
:104A70006984824505D1BDF84400BDF840108842E4
:104A80006AD0A5F820902289394628461FF07AF985
:104A9000824611902E84394628460CF059FF218910
:104AA0000068524622F090FE2089602825D147F602
:104AB000FF79CA4501D0C8451FD128461FF098FA92
:104AC00000EBD070461028461FF092FA00EBD07031
:104AD00040101199494506D1711C421C914200DADF
:104AE00000E0411C1191C84507D1711C421C914244
:104AF00001DA701C00E0401C10901948FFF7F4FE2A
:104B0000064666B31198F0601098306135602089D0
:104B1000B080B760684612F09FFF00961148019080
:104B200011480290114803900020FF21079008903F
:104B3000099120880A90608840420B90E0680690B6
:104B400000209DF83E1060F300018DF83E102069B2
:104B50000590684612F0F8FF12B0BDE8F087FEE756
:104B600074F30020B9FC0208F5FE020845FE0208B5
:104B700014210148FFF7B0BE74F300202DE9F84F6F
:104B8000074688469146002500264FF0040A39E181
:104B9000F8680AEBC601405881016FD420F07F40CD
:104BA00020F0E0FF30EA080113D0002130EA0900CC
:104BB00011D00020814261D0F86850F836B000244E
:104BC0006A4641F61001584622F0C0FB28B1012484
:104BD0009CE00121EAE70120ECE76A4641F6110179
:104BE000584622F0B3FB08B101248FE06A4641F633
:104BF0001201584622F0AAFB08B1012486E06A4659
:104C000041F61301584622F0A1FB08B101247DE0D2
:104C10006A4641F61501584622F098FB08B1012476
:104C200074E06A4641F61401584622F08FFB08B141
:104C300001246BE06A4641F26901584622F086FB86
:104C400008B1012462E06A4643F20C01584622F0A2
:104C50007DFB08B1012459E06A4643F20D01584634
:104C600022F074FB08B1012450E06A4641F20101D0
:104C7000584622F06BFB10B1012447E0C1E06A46C0
:104C800041F20401584622F061FB08B101243DE0E5
:104C90006A4641F20201584622F058FB08B101244D
:104CA00034E06A4641F20301584622F04FFB08B156
:104CB00001242BE06A4641F20501584622F046FBEA
:104CC00008B1012422E06A4641F20601584622F06A
:104CD0003DFB08B1012419E06A4641F23201584611
:104CE00022F034FB08B1012410E06A4643F60F01BC
:104CF000584622F02BFB08B1012407E06A4643F630
:104D00000E01584622F022FB00B1012414B1032009
:104D1000BDE8F88F6A4640F60A01584622F016FBB5
:104D200008B102256DE06A4640F60B01584622F0B4
:104D30000DFB08B1022564E06A4643F60F015846B0
:104D400022F004FB08B102255BE06A4643F60E013F
:104D5000584622F0FBFA08B1022552E06A4640F6B6
:104D60003C01584622F0F2FA08B1022549E06A46B1
:104D700040F63D01584622F0E9FA08B1022540E02C
:104D80006A4640F63A01584622F0E0FA08B1022598
:104D900037E06A464FF40461584622F0D7FA08B16A
:104DA00002252EE06A4640F64501584622F0CEFA2A
:104DB00008B1022525E06A4640F64101584622F036
:104DC000C5FA08B102251CE06A4640F64201584681
:104DD00022F0BCFA08B1022513E06A4640F643010E
:104DE000584622F0B3FA08B102250AE06A4640F6B6
:104DF0004901584622F0AAFA08B1022501E005B996
:104E00000125761C788CC0F3C500B0423FF6C0AED9
:104E100028467DE70148406870470000E80100200F
:104E20007047C0F30410072800D90720C0B27047AC
:104E300010B518210348FFF74FFDBDE810400120D1
:104E400023F084BF20F300202DE9F04104460D46F5
:104E50001746002C1AD02046FBF77FFA0646DFF8EB
:104E6000308029462046D8F8082090470546D8F8D3
:104E7000082060193946904701462846721A03E017
:104E80004318E35C2354401C8242F9D2BDE8F08110
:104E90008C0300202DE9F04180460C4615461F4644
:104EA000084E3946404672689047206028B13868FD
:104EB000726840440021904700E000202860BDE86F
:104EC000F08100008C0300202DE9F04F87B00446EC
:104ED000DDE910588A4693461E464FF00009002D22
:104EE00001D0A5F800906CB1207878B1BAF1000F2C
:104EF0000ED0002708F0020008F0040108431AD081
:104F0000002008E0002007B0BDE8F08F0020FAE79D
:104F10000020F8E7401C215C0A2903D00D2901D0AC
:104F20000029F7D1215C01B1401C002DEBD04FF0DE
:104F3000FF312980E7E75FEA887001D541F6FF7607
:104F4000CDF81890CDF8149023E0CDF81090059886
:104F500038B3002106AA04ABCDE90221CDE90083D4
:104F6000204433465A46514624F00CF90499721AEB
:104F700016B239440FB288B10599084405902178DA
:104F80000A290BD00D2909D0205C0A280BD00D2846
:104F900009D00598205C08B1002ED6DC059830B108
:104FA00011E00121D6E70598401C0590F6E7084A74
:104FB00005A9204652689047014625B10022504677
:104FC00018F018FF07B205B12F8005989BE7000085
:104FD0008C0300202DE9F041064688461746002E36
:104FE00021D0002F1FD03046FBF7B7F904463846D2
:104FF000FBF7B3F90546280015D02C440B4A41466F
:105000003046926890470146481903E0621BB25C43
:105010003255641EA042F9D970182A463946BDE8B7
:10502000F0411CF03CB9BDE8F08100008C03002089
:1050300010B5002223290ED103782BB10024012BB7
:1050400005D0022B05D006E00122027003E00470B7
:1050500001E0047001220378012B04D1202901D141
:10506000022101700122104610BD2DE9F34182B0EA
:105070000746039E334600213A46084624F006FBC5
:1050800005464FF00008CDF80480681C1BF064FF53
:1050900004465CB104F8058033463A46691C204654
:1050A00024F0F4FA04B02046BDE8F081FEE72DE9D3
:1050B000F04781460D4614461F46DDF8208012E079
:1050C000660806FB075A51464846C047002808DDD7
:1050D00044F30000C0EB5404A4F101040AEB0705FB
:1050E00001E005DA3446002CEAD12046BDE8F0871D
:1050F0005046FBE72DE9FF5FDDE910BCDDE912A7B3
:10510000DDE90E64149D4FF030085FEA85791ED406
:105110006FB15FEAC5790AD005F00C0959EA0B09AD
:1051200005D07F1E03E0A146641C06F809805445A3
:1051300006D2202CF7D303E0A146641C06F80980B0
:105140005FEAC57903D0BC4201D2202CF4D35FEAD8
:10515000C5693CD55FEA45590AD44CB1544501D0E4
:10516000BC4205D1641E1CB1BCF1100F00D1641EFD
:10517000BCF1100F0BD15FEA856908D4202C06D250
:10518000A4464FF07809641C06F80C9019E0BCF1B5
:10519000100F0BD15FEA856908D5202C06D2A446F2
:1051A0004FF05809641C06F80C900AE0BCF1020F9D
:1051B00007D1202C05D2A4464FF06209641C06F8E2
:1051C0000C90202C03D2A446641C06F80C80202CE2
:1051D0001CD2BBF1000F06D0A4464FF02D08641C72
:1051E00006F80C8012E05FEA457C06D5A4464FF035
:1051F0002B08641C06F80C8008E05FEA057C05D5E6
:10520000A4464FF02008641C06F80C80CDE9027516
:10521000CDE9006400F087F804B0BDE8F09F2DE907
:10522000F04F8FB0DDE91BABDDE919971D9E189C8F
:105230000025002C01D126F010065FEA465C0DF136
:105240001C0800D5FCB1B4FBF7FC07FB1C4C0CF0B0
:10525000FF0CBCF10A0F02D20CF1300C0AE05FEA3D
:10526000866E02D54FF0410E01E04FF0610EF4441E
:10527000ACF10A0CAE466D1C08F80EC0B4FBF7F496
:105280000CB1202DDFD3CDE904ABCDE90085CDE90C
:1052900002970696FFF72EFF0FB0BDE8F08F2DE9BD
:1052A000FF4F8FB0DDE91D1BDDE922A9DDE92056A6
:1052B000249F1C98002450EA010201D127F0100716
:1052C0007A050DF11C0802D550EA010218D02A46D1
:1052D0003346FAF7E7FFD2B20A2A01D2303206E0AB
:1052E000BB0601D5412300E061231A440A3A234654
:1052F000641C08F8032050EA010201D0202CE6D3F8
:10530000CDE904A9CDE90084CDE902B50FA806973F
:105310000FC8FFF7EFFE13B0BDE8F08F9A4200D23E
:105320008854704770472DE9FF5F0746DDE90EB5E9
:10533000DDE910891446A24609F0020009F00101D6
:10534000084313D12E4606E02246641C2020039B0E
:105350000199B847761C4645F6D307E02246641CFF
:105360006D1E039B1BF805000199B847002DF5D170
:105370005FEA897006D409E02246641C2020039B62
:105380000199B847A4EB0A004045F5D304B0204684
:10539000BDE8F09F2DE9FF4F95B09B468946064634
:1053A00000250FE2252877D100242746F84A01215D
:1053B000059400E0044316F8013F203B01FA03F096
:1053C0001042F7D130782A2811D06FF02F033078AF
:1053D000A0F13002092A16D8059A44F0020402EB23
:1053E000820203EB42021044761C0590EFE759F865
:1053F000042B0592002A03DA504244F4005405902D
:1054000044F00204761C30782E2816D116F8010FCD
:1054100044F004042A280DD06FF02F023078A0F158
:105420003003092B09D807EB870302EB4303C718A6
:10543000761CF3E759F8047B761C30786C280FD083
:1054400006DC4C2817D068280DD06A2814D104E057
:10545000742810D07A280FD10DE044F400140AE02B
:1054600044F4801401E044F440147278824202D182
:1054700004F58014761C761C307866280BD013DC7B
:10548000582877D009DC002875D04528F6D0462862
:10549000F4D047281AD19DE118E0632835D064285C
:1054A00079D0652812D195E1702873D008DC67287F
:1054B000F1D069286FD06E280DD06F2806D1B5E0E5
:1054C00073282CD0752875D0782874D05A4617992F
:1054D00090476D1C75E1C4F30250022809D00328DF
:1054E0000DD0D9F8001004280DD00D6009F1040981
:1054F00067E1D9F80010EA17C1E90052F6E7D9F8D8
:1055000000100D80F2E70D70F0E719F8041B8DF81C
:10551000001000208DF80100EA46012003E059F850
:1055200004AB4FF0FF3061074FF0000102D40DE0F3
:1055300008F101018846B9420FDA8045F8DB1AF814
:1055400008100029F4D108E008F1010188468142E1
:10555000FADB1AF808100029F6D105985B46A0EB93
:10556000080721463846179A00F094FA284400EBC1
:10557000080507E04DE029E10DE01AF8010B5A4655
:1055800017999047B8F10108F7D25B462146384693
:10559000179A13E142E00A220092C4F302524FF03C
:1055A000000A022A08D059F804CB032A4FEAEC710A
:1055B0000AD00DE029E02AE009F1070121F00702F5
:1055C000F2E802C1914609E00FFA8CFC4FEAEC7157
:1055D000042A03D14FFA8CFC4FEAEC71002907DA58
:1055E0000A460021DCF1000C61EB02012D2202E0F1
:1055F000220504D52B228DF80420012203E0E207C6
:1056000001D02022F7E7904659E00A2102E010225B
:105610000DE010214FF0000A00910BE010224FF036
:10562000000A44F004040827009203E008224FF027
:10563000000A0092C4F30252022A05D059F804CBA2
:105640000021032A08D009E009F1070121F007022F
:10565000F2E802C1914605E01FFA8CFC042A01D150
:105660000CF0FF0C4FF00008220728D5702806D058
:10567000009B83F0100353EA0A0305D00EE040229A
:105680008DF80420012208E05CEA010206D03022F5
:105690008DF804208DF8050002229046009B83F0CF
:1056A000080353EA0A030AD15CEA010201D1620746
:1056B00005D530228DF804204FF001087F1E5828B0
:1056C00004D034A003900EA802900DE036A0F9E7B4
:1056D00053466046009AFAF7E5FD84460398825CDB
:1056E0000298401E029002705CEA0100F0D102981C
:1056F00006A9081A00F1200A600702D524F48034B4
:1057000000E00127574502DDA7EB0A0000E000207A
:1057100000EB0A01009005984144401A0590E0030F
:1057200006D45B462146179A059800F0B3F9054464
:10573000002706E001A85A46C05D179990476D1CE6
:105740007F1C4745F6DBE0030CD55B462146179AE4
:10575000059800F09FF9054404E030205A46179957
:1057600090476D1C0099481E00900029F5DC08E068
:10577000029802995A460078491C0291179990475D
:105780006D1CBAF10001AAF1010AF1DC65E100002B
:105790000928010030313233343536373839616207
:1057A00063646566000000003031323334353637CB
:1057B00038394142434445460000000000F058F9A2
:1057C0000544761C307800287FF4ECAD19B02846EB
:1057D000BDE8F08F620700D4062709F1070222F026
:1057E000070CFCE80223E14603F000485FEA080CDE
:1057F00002D00FF2702C0DE05FEA045C02D50FF2CC
:10580000682C07E05FEAC47C02D00FF2602C01E054
:10581000AFF2700C4FF0FF3823F00043CDF850C0CA
:1058200065280CD006DC452809D046281DD047281D
:105830003DD13DE0662818D067287ED138E00021B0
:10584000112F01DB112000E0781CCDE9000106A931
:105850000EA8FDF783FEDDE90F010E9A03910021EA
:10586000009207F1010A04914DE04FF000400097CB
:10587000CDE9011006A90EA8FDF770FEDDE90F02C3
:1058800003920E9B11990022DDF80CA00093049264
:1058900011B9791C00EB010AB7EB0A0004D4C0F17E
:1058A000FF3007F1010A0490AAEB0700019044E0E1
:1058B000012F00DA01270021112F01DD112000E066
:1058C0003846CDE9000106A90EA8FDF747FEDDE93F
:1058D0000F010E9A0391002104910092BA4621070C
:1058E0000CD40399514500DA8A46BAF1010F05DD5F
:1058F000009AAAF10101515C302908D0B84202DABD
:1059000010F1040F06DA0121CDE9011015E0AAF12A
:105910000101E9E7002805DC049901440491AAEBA0
:10592000000102E0411C514500DD8A460499401AFD
:10593000401C01904FF000400290200704D40198D1
:10594000504501DBCDF8048000208DF84F0002980F
:105950000DF14F07B0F1004F25D02B200E9002988B
:105960004FF0020800280CDA404202902D200E90E1
:1059700007E00A210298FBF7F7F83031029007F8A8
:10598000011DB8F10001A8F10108F2DC029800281D
:10599000EFD1791E0E980870307800F0200040F0AA
:1059A000450007F8020D12A8C01B00F10708149863
:1059B000007800B1012000EB0A01019801EBE071D1
:1059C00005984144401A401E0590E00306D45B460A
:1059D0002146179A059800F05DF805441498007860
:1059E00018B15A46179990476D1CE00324D55B46C1
:1059F0002146179A059800F04DF805441CE00498DC
:105A0000002807DBDDE90301884203DD0098405CE4
:105A1000179901E0179930205A469047049805F1EC
:105A20000105401C04900198401E019004D12E20D5
:105A30005A46179990476D1CBAF10001AAF1010A64
:105A4000DDDC05E017F8010B5A46179990476D1CED
:105A5000B8F10001A8F10108F4DC5B462146179A71
:105A60000598ABE62D0000002B0000002000000090
:105A70002DE9F041044600251E461746880404D44B
:105A800005E039462020B0476D1C641EF9D5284634
:105A9000BDE8F0812DE9F041044600251E46904600
:105AA000C80301D5302700E02027880404D505E08D
:105AB00041463846B0476D1C641EF9D52846BDE8FE
:105AC000F0814A68002A06D00A68531C0B601070E7
:105AD0004868401E486070470A68531C0B6010708D
