:020000040800F2
:10000000C88901205D020008B1190008AD19000877
:10001000AF190008D1070008891E00080000000081
:100020000000000000000000000000009D0100082A
:10003000E508000800000000F9010008911A000816
:100040008102000881020008810200088102000884
:100050008102000881020008810200088102000874
:100060008102000881020008810200088102000864
:100070008102000881020008810200088102000854
:100080008102000881020008810200088102000844
:100090008102000881020008810200088102000834
:1000A0008102000881020008810200088102000824
:1000B00081020008B91A00088102000881020008C4
:1000C0008102000881020008810200088102000804
:1000D00081020008711E00087D1E000881020008D0
:1000E00081020008810200088102000881020008E4
:1000F00081020008810200088102000881020008D4
:1001000081020008810200088102000881020008C3
:1001100081020008810200088102000881020008B3
:1001200081020008810200088102000881020008A3
:100130008102000881020008810200088102000893
:100140008102000881020008810200088102000883
:100150008102000881020008810200088102000873
:100160008102000881020008810200088102000863
:1001700081020008810200088102000800000000DE
:100180008102000881020008DFF80CD000F0FCFAC0
:100190000048004731290008C88901202C4B196804
:1001A0000868B0E8F04F80F30988BFF36F8F4FF015
:1001B000000080F3118870470000000008480068C4
:1001C000006880F308884FF0000080F3148862B65E
:1001D00061B6BFF34F8FBFF36F8F00DF00BF00BF6B
:1001E00008ED00E0DFF80C00016841F470010160E7
:1001F000704700BF88ED00E0EFF30980BFF36F8F19
:10020000134B1A681EF0100F08BF20ED108A20E96A
:10021000F04F106009B44FF0500080F31188BFF325
:100220004F8FBFF36F8F02F0FFFE4FF0000080F39F
:10023000118809BC19680868B0E8F04F1EF0100F6B
:1002400008BFB0EC108A80F30988BFF36F8F704746
:1002500048000020EFF3058070470000094801685E
:1002600041F4700101600848804708480047FEE7F4
:10027000FEE7FEE7FEE7FEE7FEE7FEE7FEE7FEE756
:10028000FEE7000088ED00E0A91A000889010008D7
:100290002DE9F05F0546002092469B4688460646BB
:1002A000814640241BE0284641464746224600F04E
:1002B00026F953465A46C01A914110D311461846A2
:1002C000224600F00DF92D1A67EB01084F46224631
:1002D0000120002100F004F917EB00094E41201E17
:1002E000A4F10104DFDC484631462A464346BDE816
:1002F000F09F2DE9FE4F81EA030404F0004421F051
:10030000004100944FF0000B23F0004350EA010439
:100310005ED052EA03045BD0C3F30A54C1F30A551A
:100320002C44A4F2F3340194A0FB0254C1F3130152
:1003300041F48011C3F3130343F4801301FB02441F
:1003400000FB034E840A970A44EA815447EA835724
:10035000A4FB076802958D0A05FB07854FEA932CDD
:1003600004FB0C542705029D4FEA065847EA16374E
:10037000B5EB08056EEB070C870E920E47EA811766
:1003800042EA8312A7FB0201B6EB0B0164EB000407
:100390002B0D43EA0C335E1844EB1C50DA465146F1
:1003A000E7FB0201C5F313044FEA0B3343EA14538E
:1003B0004FEA0432019C43EA0603A4F10C040294C0
:1003C000009CCDE900B400F0B9F803B0BDE8F08FAF
:1003D00000200146F9E72DE9F04D81EA030404F01D
:1003E000004B21F0004514464FF0000A23F0004175
:1003F00050EA050220D054EA01021DD0C5F30A5785
:100400000246C5F31303C1F31300C1F30A5640F4C7
:10041000801543F48013A7EB0608101BD64608F29C
:10042000FD3873EB050002D308F1010801E09218D2
:100430005B41B8F1000F03DA00200146BDE8F08D02
:1004400000204FF48011064684460EE0171B73EB24
:10045000050705D3121B63EB050306434CEA010CA9
:1004600049084FEA300092185B4150EA0107EDD18C
:1004700052EA030012D082EA040083EA050108432D
:1004800005D0101BAB4106D20122002306E000225A
:100490004FF0004302E06FF0010253101AEB060028
:1004A0004CEB085110EB0A0041EB0B01BDE8F04D9D
:1004B00000F035B830B50B4601460020202201245B
:1004C00009E021FA02F59D4205D303FA02F5491B22
:1004D00004FA02F52844151EA2F10102F1DC30BD38
:1004E000202A04DB203A00FA02F1002070479140F4
:1004F000C2F1200320FA03F3194390407047202AE9
:1005000004DB203A21FA02F00021704721FA02F3BD
:10051000D040C2F12002914008431946704710B5FF
:10052000141E73F1000408DA401C41F10001921816
:100530005B411A4301D120F0010010BD2DE9F04DBF
:1005400092469B4611B1B1FA81F202E0B0FA80F214
:1005500020329046FFF7C4FF04460F4640EA0A00E7
:1005600041EA0B0153465A46084313D0114653EA59
:10057000010019D0C8F140025046FFF7C0FF054600
:100580000E46504659464246FFF7AAFF084305D09B
:10059000012004E020463946BDE8F08D00200543E7
:1005A00046EAE0762C4337430A986305E40AA0EB59
:1005B00008000022FD0A44EA47540A3002D5002010
:1005C0000146E9E7010510196941DDE9084500190F
:1005D0006941BDE8F04DA2E72DE9FE4F804681EA72
:1005E0000300C00F0C46009021F0004123F00045AD
:1005F000B8EB0200A94105D24046214690461C4670
:100600000B46024623F00040104347D0270DC7F3A6
:100610000A00C3F30A510290401A019040286BDA95
:10062000C3F3130040F4801B0098924620B10023CE
:10063000D2EB030A63EB0B0B01985946C0F1400261
:100640005046FFF74DFF06460D4650465946019A63
:1006500000F0ACF810EB08006141002487EA115269
:1006600084EAE7731A4340D0009A62B3019A012AE0
:100670004FEA075215DC001B61EB02014FF000420C
:1006800002EA0752CDE90042001C41F580113246D2
:100690002B46FFF753FF03B0BDE8F08F40462146DD
:1006A000F9E7001B61EB0201001C41F58013001803
:1006B0005B412018A2F5001747EB030140EAD57013
:1006C000B6196D4111E06D084FEA360645EAC0756E
:1006D0004FEA0752001B61EB0201001C41F580113B
:1006E00049084FEA30000019514132462B4603B009
:1006F000BDE8F04FFFF713BF009801224000002330
:10070000D0EB020263EBE073009821464FEAE074FD
:10071000B8EB000061EB0401E9E783F000435BE71D
:1007200081F0004158E7C1F30A52C1F3130140F2CE
:10073000FF3341F480119A4202DA002001467047EB
:1007400040F233439A42A2F2334202DC5242FFF7B4
:10075000D6BEFFF7C5BE000030B5041E71F100041F
:1007600004DB4FF00044404264EB0101141E73F1BE
:10077000000405DB1C464FF00043524263EB0403C8
:10078000994208BF904230BD064C074D06E0E06834
:1007900040F0010394E8070098471034AC42F6D3C8
:1007A000FFF7F6FCB8320008D8320008202A06DB32
:1007B000CB17203A41FA02F043EAE07306E041FA2F
:1007C00002F3D040C2F1200291400843194670471D
:1007D000FEE7000001681823CAB2103AB2FBF3F238
:1007E000054B6FF30901032A9B5CC36500D9091D02
:1007F00081650846704700008C32000810B501463C
:1008000000208B698A6A4FF0C07453B1B3F5005F62
:1008100015D072B1012A0CD0022A0AD0032A09D1BC
:1008200004E01AB1012A06D0022A03D1C96AC9011B
:1008300000D5012010BDC96AA142FAD010BD002A1E
:10084000F7D0012AF2D0022AF3D0032AF3D010BD48
:1008500030B50468256825F4802525600468636048
:100860008368402B036803D099600068C26030BD84
:100870009A600068C16030BD2DE9F041184C1748FE
:100880004FF00067E4E80207402000254FF480683D
:10089000A4E82101124844F81459A561E5612562D4
:1008A000656200F0E7F80E4E0C48A43E7838746399
:1008B000A66306F144042060C4E90175C4E9035845
:1008C0006561B812A561C4E907502046656200F071
:1008D000D1F8B463A663BDE8F0810000B8640240BB
:1008E0004C0100207047000070B5B3F5804F05D073
:1008F0006FF0704140F82210002070BD50F8224087
:10090000084B8E891C40D1E9003543EA05138D68F8
:1009100089692D0245EA06452B430B43234340F8E2
:100920002230E9E70000F0CFF0B50C6850F8243031
:10093000114A1340D1E90125D1E903672A433E4317
:1009400032434E6932438E693243CE6932430E6A76
:1009500032434E6A32438E6A3243CE6A3243CE6BA2
:10096000096B32430A431A43082D01D142F0400279
:1009700040F824200020F0BD8000F0FF30B500EBEF
:10098000820250688D8900F04043D1E9000440EABA
:1009900004108C68240244EA054420430C8A074D65
:1009A00005EB045420430C7D6D0105EB046489695B
:1009B0002043084318435060002030BD0000F0FF82
:1009C0002DE9F0410446876D00F0F2F9064694F8EF
:1009D00035000025022806D08020606584F8345058
:1009E0000120BDE8F0812068016821F01601016056
:1009F0002068416921F080014161206C08B9A06C38
:100A000020B12068016821F00801016020680168B8
:100A100021F0010101600BE000F0CAF9801B0528FC
:100A200006D92020606504F8345F03206070D8E7A1
:100A300020680068C007EFD194F85C103F20884020
:100A4000B86004F8345F012060700020C9E790F8B6
:100A50003510022903D0802141650120704705210E
:100A600080F835100068016821F001010160002064
:100A7000704700002DE9F041044600F099F9064660
:100A80005CB1002584F83450022084F835002068D9
:100A9000016821F0010101600DE00120BDE8F08155
:100AA00000F086F9801B052805D920206065032009
:100AB00084F83500F2E720680068C007F0D12268AA
:100AC000116820480140D4E901031843D4E90336F2
:100AD0003343184363691843A3691843E369184310
:100AE000236A18430843616A042903D1D4E90B132C
:100AF00019430843106020684069666A20F00701C6
:100B000030460E43012704280CD1A06A0643E06A50
:100B100040B12046FFF772FE20B14020606584F8A6
:100B20003570BAE7206846612046FFF753FE94F817
:100B30005C203F2191408160656584F8357000201C
:100B4000ACE700003F8010F02DE9F0410446866DCF
:100B500090F83400002501280DD0012084F83400DD
:100B600094F835700020012F07D084F83400022556
:100B70002846BDE8F0810220FBE7022784F83570A3
:100B800060652046FFF764FE94F85C103F208840C3
:100B9000B0602068016841F016010160206C20B14E
:100BA0002068016841F0080101602068016841F097
:100BB00001010160DCE700002DE9F84FDFF8B8A182
:100BC000002201250AF1040B03264FF00F090BF157
:100BD000040E00BF0B6805FA02F42340A3426FD154
:100BE0000F7907F00307012F01D0022F16D1876874
:100BF0004FEA420806FA08FC27EA0C07D1F80CC0B5
:100C00000CFA08FC4CEA070CC0F808C04768A74378
:100C10000C79C4F3001494403C4344600C79E443E1
:100C2000A4070AD0C4684FEA420C06FA0CF7BC438A
:100C30008F6807FA0CF72743C7600C7904F00304A8
:100C4000022C12D1D40800EB840CDCF820405707AA
:100C5000FF0E09FA07F824EA0804D1F8108008FA10
:100C600007F848EA0408CCF8208004684FEA420CF0
:100C700006FA0CF7BC430F7907F0030707FA0CF7E5
:100C8000274307604C68E40070D53C4C276847F464
:100C900080472760246822F0030704F4804400940E
:100CA000374C07EB040CDCF8084897074FEA177835
:100CB00009FA08F7BC43334FB84202D1002724E0B9
:100CC00054E0314FB84201D101271EE02F4FB84206
:100CD00001D1022719E02E4FB84201D1032714E0B9
:100CE0002C4FB84201D104270FE02B4FB84201D15D
:100CF00005270AE0294FB84201D1062705E0284F11
:100D0000B84201D1072700E0082707FA08F7274370
:100D1000CCF80878DAF800405746D1F804C09C4374
:100D20005FEACC3C00D51C433C60DBF800405F46EA
:100D3000D1F804C09C435FEA8C3C00D51C433C6066
:100D4000DEF800407746D1F804C09C435FEACC2C23
:100D500000D51C433C60084F0C373C68D1F804C0F8
:100D60009C435FEA8C2C00D51C433C60521C102A2B
:100D7000FFF430AFBDE8F88F003C0140443802403A
:100D80000030014000000240000402400008024020
:100D9000000C024000100240001402400018024003
:100DA000001C024001480068000C7047002004E06D
:100DB00001488068704700001000002002488168E8
:100DC000027811448160704710000020094810B576
:100DD000016841F400710160016841F480610160C3
:100DE000032000F057F80F2000F006F800F024F878
:100DF000002010BD003C024070B50D4D04464FF47C
:100E00007A712878B1FBF0F00A490968B1FBF0F07B
:100E100000F064FB48B9102C07D200222146501E76
:100E200000F018F800206C6070BD012070BD00005B
:100E300010000020000000207047002809DB00F0AF
:100E40001F02012191404009800000F1E020C0F81C
:100E500000117047F0B40E4B1B680C46C3F302231D
:100E6000C3F10705042D00D90425191D072901D256
:100E7000002300E0DB1E012606FA05F1491E214091
:100E800099409E40761E16403143F0BC01F026B8D2
:100E90000CED00E0064900F0070208684FF6FF037A
:100EA000184040EA0220034A1043086070470000DF
:100EB0000CED00E00000FA052DE9F0470E460500B4
:100EC00065D0DFF81481D8F80000F7B200F0070011
:100ED000B04207D288F80070D8F8000000F0070090
:100EE000B04254D128683D4C810712D5400703D544
:100EF000206840F4E05020602878000703D520687F
:100F000040F4604020602068A96820F0F0000843A9
:100F100020602878C0072DD030496868083901283A
:100F200012D0022813D0032811D00968890700299C
:100F30002DDA216821F0030101432160FFF738FF1A
:100F4000814641F2883A0EE009688903EFE70968B3
:100F50008901ECE7FFF72CFFA0EB0901514502D90D
:100F60000320BDE8F0872068696800F00C00B0EB52
:100F7000810FEFD1D8F80010404601F00701B142CF
:100F800007D90770006800F00700B04201D00120C7
:100F9000E7E72878400705D52068E96820F4E050A5
:100FA000084320602878000706D52068296920F4C6
:100FB000604040EAC100206000F038F82168084A2B
:100FC000C1F30311515CC840064908600648006837
:100FD000FFF712FF0020C4E7003C0240083802403F
:100FE0007432000800000020140000200448054965
:100FF00000680968044AC1F38221515CC840704707
:1010000000000020083802408432000804480549E6
:1010100000680968044AC1F34231515CC840704716
:10102000000000200838024084320008154810B53E
:10103000006810F00C02144813D04110042A0FD09D
:10104000082A0ED10F4C241F2268236802F03F02A9
:101050005B0207D52068C0F38810A0FB010106E001
:10106000084610BD2168C1F38811A1FB00010023CF
:10107000FFF70EF92168C1F30141491C4900B0FB9B
:10108000F1F010BD083802400024F4002DE9F84FBB
:1010900004006ED02078DFF84C93C007A9F1040556
:1010A0004AD009F104000168C1F38101012908D087
:1010B0000068C0F3810002280AD1D9F8000040027C
:1010C00006D52868800337D560680028E1D033E072
:1010D0006068B0F5803F10D0B0F5A02F286810D020
:1010E00020F480302860286820F480202860606820
:1010F000A8B1FFF75DFE06460DE0286840F4803099
:10110000F4E740F480202860F7E700BFFFF750FEC7
:10111000801B642873D828688003F7D50CE0FFF79C
:1011200047FE064605E000BFFFF742FE801B64282D
:10113000F0D828688003F7D42078DFF8AC828007E5
:101140004FF0000A3ED5A748001D016811F00C0FB2
:1011500008D00068C0F3810002280BD1D9F8000044
:10116000400207D42868800716D5E068012800D11E
:1011700012E033E1E068B8B10120C8F80000FFF7E1
:1011800017FE064605E000BFFFF712FE801B02288F
:10119000C0D828688007F7D52868216920F0F800B2
:1011A00040EAC10028600DE0C8F800A0FFF700FE8B
:1011B000064604E0FFF7FCFD801B02281FD82868C4
:1011C0008007F7D42078000722D5864F87486169C9
:1011D000703771B101210160FFF7EAFD064604E0B6
:1011E000FFF7E6FD801B022809D838688007F7D58D
:1011F0000EE0C0F800A0FFF7DBFD064605E082E048
:10120000FFF7D6FD801B02287DD838688007F7D409
:101210002078400768D5DFF8CCB100270BF13C0BF4
:10122000DBF80000C0000BD4DBF8001041F0805167
:10123000CBF80010DBF80000012700F08050009090
:101240006B4E3068C00510D4306840F48070306058
:10125000FFF7AEFD009005E0FFF7AAFD0099401AE8
:10126000022850D83068C005F6D55E4EA0686C36AE
:1012700001280FD00528306810D020F00100306020
:10128000306820F004003060A068B8B1FFF790FD2E
:1012900000900FE0306840F00100F4E740F00400F7
:1012A0003060F7E7FFF784FD0099411A41F288307A
:1012B000814266D830688007F4D50EE0FFF778FDEC
:1012C000009007E0FFF774FD0099411A41F2883061
:1012D000814256D830688007F4D42FB1DBF8001073
:1012E00021F08051CBF80010A069C8B33D49091D19
:1012F0000968C1F3810102294AD00228504607D06B
:10130000C8F8600000E03CE0FFF752FD04463BE017
:101310004746C8F86000FFF74BFD064605E000BFF2
:10132000FFF746FD801B02282BD828688001F7D4E0
:10133000D4E907010843A16A2E4A490802EB01419A
:10134000626A41EA8211084394F82C1040EA016174
:10135000C9F8001001203866FFF72AFD044606E0B0
:101360003EE000BFFFF724FD001B022809D82868D3
:101370008001F7D534E000BFFFF71AFD001B0228FB
:1013800002D90320BDE8F88F28688001F4D427E053
:101390000128F7D0D9F80000E26900F480019142F9
:1013A0001CD1226A00F03F01914217D147F6C0716B
:1013B000626A0140B1EB821F10D1A26A4FF0FF3385
:1013C00000F4403103EB5202B1EB024F06D194F826
:1013D0002C1000F07060B0EB016F01D00120D1E75C
:1013E0000020CFE70438024000004742800E474209
:1013F000007000400000FFFF70B515460E46040067
:1014000003D094F8490010B107E0012070BD00201E
:1014100084F84800204600F01BF804F10801206819
:10142000FFF782FA3146A2682068FFF7A7FAD4E9ED
:1014300001022946236BFFF757FAA168206850F88C
:10144000212042F0010240F82120002070BD000060
:10145000194800B5016887B041F0010101600068DA
:1014600000F00100059014480838016841F00801B7
:101470000160016801F008010591016841F0100167
:1014800001600068012100F0100005904CF203702B
:1014900000900220CDE9010103900C2004906946E0
:1014A0000648FFF789FB4FF68070009069460448B4
:1014B000FFF782FB07B000BD38380240000C024045
:1014C000001002404FF0E0210428086903D020F00A
:1014D00004000861704740F00400FAE710B5401EB0
:1014E000B0F1807F01D3012010BD4FF0E024606196
:1014F0000F21601700F0F2FC0020A061072020619E
:10150000002010BD70477047F8B5026804461068A7
:10151000D168536910F00F0F4FF0000554D003F05D
:10152000010601F4907737435FD0C20705D0CA05A2
:1015300003D5226C42F001022264420705D5DA0786
:1015400003D0226C42F002022264820705D5DA073A
:1015500003D0226C42F004022264020707D501F096
:101560002002324303D0226C42F008022264226C33
:10157000002A35D0800604D5880602D5204600F022
:1015800045FB20684069216CC0F3801001F0080120
:101590000143204625D000F018FB20684169490628
:1015A0001BD5416921F040014161A06BA8B15949A7
:1015B0000165A06BFFF74BFA002811D0A06B016DFD
:1015C00001B0BDE8F040084783060ED58B060CD568
:1015D0002046BDE8F84000F019BB2046FFF793FF16
:1015E000F8BDFFF790FF2564F8BD266B2023012E80
:1015F00053D1C60651D5CE064FD51068506800901D
:10160000506940062BD5A16B086840680004000CA7
:10161000EAD0A68D8642E7D9E085C869B0F5807F1B
:1016200018D0D06820F48070D0602068416921F023
:10163000010141612068416921F04001416184F864
:101640003E3025632068C16821F01001C160A06BA5
:10165000FFF7B6F9A08DE18D401A81B219E0A08D97
:10166000E18D401A81B2E08D0028BDD00029BBD0A9
:10167000D06820F49070D0602068426922F00102A6
:10168000426184F83E3025632068C26822F010026F
:10169000C2602046FFF736FFF8BD05062BD50D06C4
:1016A00029D594F83D002128F6D1A068B0F5805FD7
:1016B00001D12069B0B1206A411C21622168007803
:1016C0004860E08C401E0004000CE084E4D12068F7
:1016D000C16821F08001C1602068C16841F040010B
:1016E000C160F8BD206A0088C0F308005060206A1D
:1016F000801C2062E5E74006F3D54806F1D5D168A5
:10170000204621F04001D16084F83D3000F04DF9D1
:10171000F8BD0000FD1A000870B5040004D094F86C
:101720003D00002510B106E0012070BD84F83C505A
:10173000204600F023F8242084F83D002068C1688A
:1017400021F40051C160204600F0B8FA2068016918
:1017500021F4904101612068416921F02A01416131
:101760002068C16841F40051C1602564202084F8DC
:101770003D0084F83E00002070BD00002DE9F04FD0
:10178000074600683D493E4C02250726DFF8F480F5
:1017900087B04FF400794FF0010A4FF4806B884214
:1017A00031D137481430016841F010010160006800
:1017B00000F010000590206840F0010020602068D3
:1017C00000F001000590206840F0010020602068D2
:1017D000CDE9009500F00100CDE90460CDE902A556
:1017E00069464046FFF7E8F969464046CDF800B043
:1017F0000496FFF7E1F92520FFF71FFB03221146AE
:101800002520FFF727FB20493868884232D11C4841
:101810001030016841F400310160006800F40030CC
:101820000590206840F001002060206800F0010071
:101830000590206840F0010020602068CDE9009507
:1018400000F00100CDE90460CDE902A569464446F7
:101850004046FFF7B1F969462046CDF800B004963E
:10186000FFF7AAF92620FFF7E8FA04220321262031
:10187000FFF7F0FA07B0BDE8F08F0000001001405C
:1018800030380240000002400044004090F83E30F2
:10189000202B0ED159B152B190F83C30012B08D019
:1018A000012380F83C300023036300F08DBA01204F
:1018B00070470220704790F83E30202B0ED159B16E
:1018C00052B190F83C30012B08D0012380F83C3015
:1018D0000023036300F0B0BA012070470220704774
:1018E00070B5054600682849002488421ED1274962
:1018F0004A88100414D408465304007804D50A28F2
:101900000DD142F4004022E00D281ED0204EC2F33B
:101910000D03521CF05490B24880132800D94C801B
:101920001B48012219491430FFF7B0FF19492868F4
:10193000884228D1184801880A0419D4174A4B0450
:10194000127809D50A2A12D103E042F48040488077
:10195000E6E741F4004114E00D2A10D0C1F30D0375
:101960000F4D491C89B2EA540180132900D9048023
:10197000BDE87040012209490A48FFF79CBF41F4C5
:1019800080410180F4E770BD001001400800002094
:1019900094000020004400401E0000202000002091
:1019A000F40300200804002070477047FEE7FEE7BC
:1019B00070472DE9F0470C46DDE908670021002556
:1019C0008C4600BF60E04FF0010808FA01F504EA18
:1019D000050CAC4557D1D0F800804FEA410A4FF0D2
:1019E000030909FA0AF928EA0908C0F80080D0F8C2
:1019F00000804FEA410902FA09F948EA0908C0F8EB
:101A00000080012A01D0022A27D1D0F808804FEAAD
:101A1000410A4FF0030909FA0AF928EA0908C0F84F
:101A20000880D0F808804FEA410906FA09F948EA27
:101A30000908C0F80880D0F804904FF0010808FAAF
:101A400001F829EA0809C0F80490D0F8048003FAE4
:101A500001F948EA0908C0F80480D0F80C804FEA80
:101A6000410A4FF0030909FA0AF928EA0908C0F8FF
:101A70000C80D0F80C804FEA410907FA09F948EACE
:101A80000908C0F80C80491C10299CD3BDE8F087D8
:101A900010B5FFF793F901F023FB012803D0BDE84F
:101AA000104001F007BB10BD0248016841F470010D
:101AB0000160704788ED00E00E4908680069C04386
:101AC000C00711D101F148020B4812680078506339
:101AD00001F1D8021268506301F19002126850635C
:101AE00001F590721268506309686FF00100086197
:101AF00070470000FC0100201C00002010B5806B26
:101B00000021C185C184FFF7FEFC10BD70B5846B58
:101B10002068406994F83D10C0F3C01000252129C9
:101B200004D118B1E584204600F067F820684069C8
:101B300094F83E10C0F38010222904D118B1E58535
:101B4000204600F042F8206C40F01000206420464F
:101B5000FFF7D9FC70BD10B50146806B09680968B4
:101B6000C9051BD40021C1850168CA6822F48072AE
:101B7000CA6001684A6922F001024A6101684A6943
:101B800022F040024A61202180F83E10016B0129B9
:101B900004D10168CA6822F01002CA60016B0129F1
:101BA00002D0FFF79DFE10BD818DFFF7ABFC10BD8D
:101BB00010B5806B016B012902D0FFF7F5FE10BD57
:101BC000818D4908FFF79EFC10BD0168CA6822F4A8
:101BD0009072CA6001684A6922F001024A61016B91
:101BE000012904D10168CA6822F01002CA602021CC
:101BF00080F83E100021016370470168CA6822F036
:101C0000C002CA60202180F83D10704710B504461C
:101C100090F83E00222801D0022010BDA1684FF4A8
:101C20008052914201D1206920B1A06A91421BD01B
:101C300049B10AE02168A06A4968C1F3080101803E
:101C4000A06A801C08E0216971B12168496801F02F
:101C50007F010170A06A401CA062E08D401E00045C
:101C6000000CE08503D01CE021684968F1E720689A
:101C7000C16821F02001C1602068C16821F4807131
:101C8000C1602068416921F001014161202084F890
:101C90003E00206B012806D02046FFF721FE0020E1
:101CA0002063002010BD2068C16821F01001C160D0
:101CB000A18D2046FFF726FCF1E7000070B5044631
:101CC00000680169E26821F4405111430161216912
:101CD000A068E26908436169114308432168CA6842
:101CE00049F20C639A430243CA6020684169A269C1
:101CF00021F440711143416131492068884202D08A
:101D00003049884202D1FFF781F901E0FFF76EF90F
:101D1000E2690023192164253226B2F5004F62687A
:101D200028D0A0FB0101930F9200FEF7B1FA014603
:101D3000B0FBF5F06FF01802504301EB800006EBAA
:101D40000010B0FBF5F000F0F002B1FBF5F002EB93
:101D50000012B1FBF5F06FF01803584301EB80005F
:101D600006EB0010B0FBF5F000F00F002168104406
:101D7000886070BDA0FB010192185B41FEF788FAF4
:101D80000146B0FBF5F00201B1FBF5F06FF018036E
:101D9000584301EB800006EBC000B0FBF5F000F00B
:101DA000F80002EB4002B1FBF5F0584301EB800074
:101DB00006EBC000B0FBF5F000F00700D6E700002E
:101DC000001001400014014038B581628285002571
:101DD000134604460564222084F83E00A26B134893
:101DE000D063A26B12481064A26B1248D064A06B3F
:101DF0000A4605652168A06B091DFEF7A5FE20684F
:101E000001684168009184F83C50C16841F48071D8
:101E1000C1602068416941F0010141612068416968
:101E200041F040014161002038BD0000571B00080F
:101E3000B11B00080D1B000881628285C28500214C
:101E40000164222280F83E2080F83C100168CA68B4
:101E500042F48072CA6001684A6942F001024A6134
:101E60000068C16841F02001C16000207047000097
:101E70000148FFF749BB0000A80000200148FFF718
:101E800043BB000008040020FEE770B506213020A7
:101E900000F0F2FF302000F0FFFE0546062D03D0D3
:101EA0000621302000F0E8FF002403E001F0DAF919
:101EB000601C84B2C82CF9DB70BD00000FB4054B68
:101EC00010B503A9044A029800F0DAF810BC5DF8D6
:101ED00014FB0000012900080C0000200907090E6E
:101EE000002804DB00F1E02080F80014704700F0C7
:101EF0000F0000F1E02080F8141D704702E008C8D0
:101F0000121F08C1002AFAD170477047002001E073
:101F100001C1121F002AFBD1704700002DE9FF5FAD
:101F2000DDE90220010DDDF838B0024318D044F697
:101F30001050A1F2FF3141430D140F98012820D019
:101F4000A5EB0B00401C5FEA000A4FF00004474E6F
:101F5000DFF81C91A046504616D5CAF1000728E0CC
:101F60000F98012443A2012808D0002100980F9B5C
:101F7000C0E90021C0E90243BDE8FF9F6FEA0B0101
:101F8000F4E7CBF10000DEE7074612E0F80707D0E0
:101F90002246334640464946FEF7ABF9804689461D
:101FA0002246334610461946FEF7A3F904460E466C
:101FB0007F10002FEAD1DDE90201BAF1000F42469D
:101FC0004B4602DAFEF795F901E0FEF704FA044603
:101FD0000E460022284BFEF7BFFB03D84FF0FF3020
:101FE000014607E00022254B20463146FEF7F4FA71
:101FF000FEF799FB102409E0002C0ADB0A220023DB
:10200000FEF746F9019B30321A55641E50EA010270
:10201000F2D1641C019AC4F1110314440F9A012AED
:1020200003D0012208430DD10AE0084304D0002068
:102030004FF0110B0F9080E7A3EB0B056D1E0DE029
:102040005B4504DD4FF0000205F1010504E003DA11
:102050004FF00002A5F10105002AECD000980F997D
:10206000C0E90231C0E9004586E7000000002440D5
:102070000000F03F300000000000F0430000E03FAF
:102080002DE9FF4F95B09B468946064600250FE295
:10209000252877D100242746F84A0121059400E03D
:1020A000044316F8013F203B01FA03F01042F7D138
:1020B00030782A2811D06FF02F033078A0F1300249
:1020C000092A16D8059A44F0020402EB820203EBB7
:1020D00042021044761C0590EFE759F8042B059254
:1020E000002A03DA504244F40054059044F00204FC
:1020F000761C30782E2816D116F8010F44F004040F
:102100002A280DD06FF02F023078A0F13003092B70
:1021100009D807EB870302EB4303C718761CF3E7E4
:1021200059F8047B761C30786C280FD006DC4C28DC
:1021300017D068280DD06A2814D104E0742810D074
:102140007A280FD10DE044F400140AE044F480141E
:1021500001E044F440147278824202D104F5801404
:10216000761C761C307866280BD013DC582877D084
:1021700009DC002875D04528F6D04628F4D0472839
:102180001AD19DE118E0632835D0642879D06528FC
:1021900012D195E1702873D008DC6728F1D0692846
:1021A0006FD06E280DD06F2806D1B5E073282CD0E3
:1021B000752875D0782874D05A46179990476D1CA9
:1021C00075E1C4F30250022809D003280DD0D9F8D4
:1021D000001004280DD00D6009F1040967E1D9F859
:1021E0000010EA17C1E90052F6E7D9F800100D8097
:1021F000F2E70D70F0E719F8041B8DF800100020CD
:102200008DF80100EA46012003E059F804AB4FF0D5
:10221000FF3061074FF0000102D40DE008F1010129
:102220008846B9420FDA8045F8DB1AF80810002911
:10223000F4D108E008F1010188468142FADB1AF87E
:1022400008100029F6D105985B46A0EB0807214647
:102250003846179A00F094FA284400EB080507E086
:102260004DE029E10DE01AF8010B5A461799904705
:10227000B8F10108F7D25B4621463846179A13E1B8
:1022800042E00A220092C4F302524FF0000A022AEE
:1022900008D059F804CB032A4FEAEC710AD00DE0BC
:1022A00029E02AE009F1070121F00702F2E802C162
:1022B000914609E00FFA8CFC4FEAEC71042A03D135
:1022C0004FFA8CFC4FEAEC71002907DA0A4600212C
:1022D000DCF1000C61EB02012D2202E0220504D5A5
:1022E0002B228DF80420012203E0E20701D02022F6
:1022F000F7E7904659E00A2102E010220DE0102194
:102300004FF0000A00910BE010224FF0000A44F059
:1023100004040827009203E008224FF0000A00920C
:10232000C4F30252022A05D059F804CB0021032A33
:1023300008D009E009F1070121F00702F2E802C123
:10234000914605E01FFA8CFC042A01D10CF0FF0C29
:102350004FF00008220728D5702806D0009B83F094
:10236000100353EA0A0305D00EE040228DF8042042
:10237000012208E05CEA010206D030228DF8042038
:102380008DF8050002229046009B83F0080353EA73
:102390000A030AD15CEA010201D1620705D53022A5
:1023A0008DF804204FF001087F1E582804D034A077
:1023B00003900EA802900DE036A0F9E75346604660
:1023C000009AFDF765FF84460398825C0298401EE0
:1023D000029002705CEA0100F0D1029806A9081A86
:1023E00000F1200A600702D524F4803400E00127C0
:1023F000574502DDA7EB0A0000E0002000EB0A01D0
:10240000009005984144401A0590E00306D45B46CD
:102410002146179A059800F0B3F90544002706E015
:1024200001A85A46C05D179990476D1C7F1C47450F
:10243000F6DBE0030CD55B462146179A059800F0C1
:102440009FF9054404E030205A46179990476D1CC7
:102450000099481E00900029F5DC08E002980299D6
:102460005A460078491C0291179990476D1CBAF1A1
:102470000001AAF1010AF1DC65E100000928010070
:1024800030313233343536373839616263646566EA
:1024900000000000303132333435363738394142AC
:1024A000434445460000000000F058F90544761CFE
:1024B000307800287FF4ECAD19B02846BDE8F08FE5
:1024C000620700D4062709F1070222F0070CFCE896
:1024D0000223E14603F000485FEA080C02D00FF245
:1024E000702C0DE05FEA045C02D50FF2682C07E067
:1024F0005FEAC47C02D00FF2602C01E0AFF2700CF6
:102500004FF0FF3823F00043CDF850C065280CD0C1
:1025100006DC452809D046281DD047283DD13DE09E
:10252000662818D067287ED138E00021112F01DB02
:10253000112000E0781CCDE9000106A90EA8FFF7E4
:10254000EDFCDDE90F010E9A03910021009207F1E5
:10255000010A04914DE04FF000400097CDE90110D1
:1025600006A90EA8FFF7DAFCDDE90F0203920E9B25
:1025700011990022DDF80CA00093049211B9791C86
:1025800000EB010AB7EB0A0004D4C0F1FF3007F1F9
:10259000010A0490AAEB0700019044E0012F00DA41
:1025A00001270021112F01DD112000E03846CDE97F
:1025B000000106A90EA8FFF7B1FCDDE90F010E9A94
:1025C0000391002104910092BA4621070CD403998B
:1025D000514500DA8A46BAF1010F05DD009AAAF1E9
:1025E0000101515C302908D0B84202DA10F1040F21
:1025F00006DA0121CDE9011015E0AAF10101E9E7B0
:10260000002805DC049901440491AAEB000102E0D2
:10261000411C514500DD8A460499401A401C019036
:102620004FF000400290200704D40198504501DB90
:10263000CDF8048000208DF84F0002980DF14F076F
:10264000B0F1004F25D02B200E9002984FF00208D9
:1026500000280CDA404202902D200E9007E00A215B
:102660000298FDF727FF3031029007F8011DB8F1FD
:102670000001A8F10108F2DC02980028EFD1791ED0
:102680000E980870307800F0200040F0450007F800
:10269000020D12A8C01B00F107081498007800B1C1
:1026A000012000EB0A01019801EBE071059841441B
:1026B000401A401E0590E00306D45B462146179A57
:1026C000059800F05DF805441498007818B15A4652
:1026D000179990476D1CE00324D55B462146179A55
:1026E000059800F04DF805441CE00498002807DB2D
:1026F000DDE90301884203DD0098405C179901E0A1
:10270000179930205A469047049805F10105401C5E
:1027100004900198401E019004D12E205A4617992A
:1027200090476D1CBAF10001AAF1010ADDDC05E059
:1027300017F8010B5A46179990476D1CB8F1000124
:10274000A8F10108F4DC5B462146179A0598ABE630
:102750002D0000002B000000200000002DE9F041BA
:10276000044600251E461746880404D405E0394671
:102770002020B0476D1C641EF9D52846BDE8F081C5
:102780002DE9F041044600251E469046C80301D5B8
:10279000302700E02027880404D505E0414638466C
:1027A000B0476D1C641EF9D52846BDE8F0810000D5
:1027B00000F00101194A1160C0F34001184AC2F843
:1027C0008412C0F38001154A08321160C0F3001171
:1027D000121F1160C0F34011104A3C321160C0F367
:1027E0008011104A1160C0F3C0110C4A38321160D8
:1027F000C0F300210B4A121D1160C0F34021074AAB
:1028000034321160C0F38021044A14321160C0F3E5
:10281000C021024A0C32116070470000808242429F
:10282000000043429002434200F00101104A11604F
:10283000C0F340010F4AC2F8BC12C0F380010C4A39
:10284000383A1160C0F3C001121D1160C0F30011CD
:10285000094A1160C0F34011121D1160C0F38011CC
:10286000121D1160C109054AC2F8A8127047000084
:10287000B8824142008041429C02424200004242F2
:1028800010B504460420FEF71DFE084804604FF40E
:102890007A7044434FF0E020016941F00201016188
:1028A0004461016941F00101016110BD0400002093
:1028B00070B5054600244FF47A7603E0304600F008
:1028C00005F8641CAC42F9D370BD000070B54FF040
:1028D000E024002265690949A36909684843A169A0
:1028E0009942FCD002D2A3EB010302E0A5EB010662
:1028F00033441A440B468242F1D370BD04000020D9
:10290000084BC2B2994205D107490B685B06FCD55A
:102910004A60704705490B685B06FCD50349091DF1
:102920000A6070470C000020001001400044004085
:1029300008B5FEF74BFA0723022208214FF4A870CE
:1029400000F00CFBA820FFF79BFF4FF4E13000F0F4
:102950004FFB00F09DF8002000F048F8022000F046
:1029600045F8012000F042F8FDF786FF17A0FFF7B9
:10297000A5FA4FF47A70FFF79BFF154C154F002610
:102980006FF02F052078E2783038C1B2A07894F843
:1029900007C0303800EB800005EB40001044C2B2A5
:1029A0006079ACF1300C3038C3B2207A0CEB8C0C6F
:1029B00005EB4C0C6044C0B2009007A0FFF77EFA14
:1029C0003E800120FFF774FFDCE700006F6B000022
:1029D000940000200A000020256420253264202570
:1029E0006420253264200D0A0000000070B5044602
:1029F0000B480C4E002150F8240006EB84054200E1
:102A0000686900F02FF806480021183050F824209B
:102A1000A86800F027F80120311981F8200070BD66
:102A2000943200082400002010B50C4B0C4C0022FE
:102A300053F82030114604EB800005E0446934F877
:102A4000114004B1521C491C8B42F7D84FF47A70E4
:102A50004243B2FBF3F080B210BD00009432000894
:102A60002400002002E000BF00F8011B521EFBD230
:102A7000704700000548816B096821B1816BC96806
:102A80000968816270474FF0FF31FAE74800002083
:102A90002DE9F0438DB0FFF7F8F9504800240168A4
:102AA00041F040010160016801F040010C910168B2
:102AB00041F008010160016801F008010C91016812
:102AC00041F008010160016801F008010C914349DF
:102AD00008310A6842F001020A60096801F0010148
:102AE0000C91016841F008010160016801F00801E2
:102AF0000C91016841F010010160016801F01001C2
:102B00000C91016841F020010160016801F0200191
:102B10000C91016841F0400101600068022500F05D
:102B200040000C904FF4806001278DE8A1000C203C
:102B3000CDE90350DFF8A89069464846FEF73CF817
:102B40002020DFF8A080009069464046FEF734F868
:102B50001026694640460096FEF72EF84FF60370A1
:102B60008DE8A100694640460395FEF725F84FF62B
:102B70008370009069461C48FEF71EF84FF23F0034
:102B8000009069461948FEF717F83F200090694603
:102B90004846FEF711F816484FF0204105AA01609B
:102BA000144941600421C0E90214C0E9044684616B
:102BB0008902C461C0E90941C46204634463846357
:102BC0000620CDE9064005940894114608480B9468
:102BD000FEF712FC0DB0BDE8F08300003038024073
:102BE00000180240000C0240001002400014024095
:102BF000AC010020040100A01CB52048006840F092
:102C000078001E4908600120032100230246CDE917
:102C100000104EF233011A48FEF7CBFE01200321CB
:102C200000230246CDE900104EF22F011548FEF7B1
:102C3000C0FE0120032100230246CDE9001040F22E
:102C400033411148FEF7B5FE01200321002302465F
:102C5000CDE900104FF4F0610C48FEF7AAFE012008
:102C60000B4908600B49C1F8A8020949091F08600F
:102C700000200849C1F880021CBD00003038024025
:102C8000000C0240001402400018024000100240F4
:102C900094824142000043422DE9FC410446002554
:102CA00000260027FFF7A8FF00206B49086000F00E
:102CB000D9FA00BF10E0002067490860674931F881
:102CC0001500FFF775FD00F0CDFA01206449C1F849
:102CD000940200F0C7FA6D1C052DECDB0120614960
:102CE000086000205E49C1F89402200AFFF79CFDAD
:102CF00000F0B8FA01205849086000F0B3FA00204B
:102D00005749C1F89402E0B2FFF78EFD00F0AAFA2D
:102D100001205149086000F0A5FA00205049C1F88F
:102D200094025148006840F078004F490860012043
:102D3000032103460022CDE900104FF4F0614B4817
:102D4000FEF737FE0120032103460022CDE90010E3
:102D50004CF203014648FEF72CFE00203E49091FB5
:102D60000860091D086000F07DFA01203C49C1F8A7
:102D7000940200F077FA38485C3800683849D1F896
:102D80003C1240EA41003649D1F8001240EA810085
:102D90003349D1F8041240EAC1003649D1F81C1277
:102DA00040EA01103349D1F8201240EA411031497C
:102DB000D1F8241240EA81102E49D1F8281240EAB5
:102DC000C110C6B200F04EFA00202349086000F09E
:102DD00049FA01202249C1F8940200F043FA1E4842
:102DE0005C3800681E49D1F83C1240EA41001C4999
:102DF000D1F8001240EA81001949D1F8041240EAE2
:102E0000C1001C49D1F81C1240EA01101949D1F83F
:102E1000201240EA41101749D1F8241240EA8110EB
:102E20001449D1F8281240EAC110C7B200F01AFACA
:102E300000200C4928310860012007490860091F5B
:102E4000086000F00FFA012006492831086047EABF
:102E50000620BDE8FC8100009482414288000020E9
:102E6000008041428002434230380240001002405C
:102E7000000C02400000424270B504460D46002698
:102E8000FFF7BAFE00F0EEF900BF10E000202F4976
:102E900008602F4931F81600FFF78AFC00F0E2F9CC
:102EA00001202C49C1F8940200F0DCF9761C052EB3
:102EB000ECDB01202849086000202649C1F8940273
:102EC000802141EA1420FFF7AFFC00F0CBF901208C
:102ED0001E49086000F0C6F900201E49C1F894029E
:102EE000E0B2FFF7A1FC00F0BDF90120174908602E
:102EF00000F0B8F900201749C1F89402280AFFF73A
:102F000093FC00F0AFF901201049086000F0AAF925
:102F100000201049C1F89402E8B2FFF785FC00F0E8
:102F2000A1F901200949086000F09CF900200A4934
:102F300028310860012005490860091F086000F079
:102F400091F9012004492831086070BD9482414202
:102F500088000020008041428002434270B5214C2D
:102F600092B00025266846F080562660246804F05A
:102F7000805411941C4C266846F4804626602468D0
:102F80000DF1240C04F480441194012400942404D1
:102F90000194022406948CE80D006605CDE90761D2
:102FA0006846FEF773F868B90CA90F2081E8310074
:102FB0004FF4A0500F90E002109004210CA8FDF7F0
:102FC0007BFF10B1012012B070BDFDF7EBFE41F2A6
:102FD0000101884204D10548016841F48071016013
:102FE0000020F0E74038024000700040003C024002
:102FF0000B4910B5094AC1E9002000208860C8606B
:10300000086188610C2048610846FEF785FBBDE831
:103010001040012203490248FEF74DBC0010014058
:10302000A80000200800002070B5134C606B10B1A0
:103030000120E06170BD0020E06120690F4EB0FA10
:1030400080F0C0F11F0000EB800556F8250028B97C
:1030500040F602420AA113A0FEF730FF06EB8500FE
:1030600000F10802416849684160914201D1496814
:103070004160C868206070BD48000020E0820120E7
:103080002E2E5C2E2E5C4D6964646C6577617265D2
:10309000735C4672656552544F535C7461736B7315
:1030A0002E6300004572726F723A2025732C202522
:1030B000640D0A0010B5502080F31188BFF34F8FC4
:1030C000BFF36F8F00F01AF818B104494FF0805029
:1030D0000860002080F3118810BD000004ED00E0BE
:1030E0000548416919B1406B18B1002070470120B3
:1030F0007047022070470000480000202DE9F04191
:10310000494C0026606B28B1A069401CA061304684
:10311000BDE8F081E5686D1CE56011D1A06B006829
:1031200028B140F6C72241A149A0FEF7C7FEA06B17
:10313000E16BA163E063206A401C2062FFF79AFC08
:10314000A16A47488D420FD34FF0000EA16B09686A
:1031500039B1A16BC968C9684A68954212D2A262A6
:1031600002E04FF0FF31A1622168C96A01EB8101E1
:1031700050F82100012800D90126E0690028C6D0B6
:103180000126C4E7D1E902724B69BA60D1E902278E
:103190007A605F680A1D974201D1CF685F60C1F80D
:1031A00014E01F687F1E1F60D1F828C0BCF1000F1B
:1031B00015D0D1E907379F60D1E907377B60DCF88C
:1031C000047001F118039F4202D10B6ACCF804305D
:1031D000C1F828E0DCF800305B1ECCF80030CB6A88
:1031E0000127D4F810C09F4047EA0C07276103EB82
:1031F000830300EB83035B688B609F68CF609F68ED
:103200007A609A60CA6A02EB820200EB82034B6129
:1032100050F822305B1C40F82230C96A2268D26A1A
:10322000914293D3012691E7480000202E2E5C2E78
:103230002E5C4D6964646C6577617265735C46727F
:10324000656552544F535C7461736B732E63000059
:103250004572726F723A2025732C2025640D0A0086
:10326000E082012044F2A01001E000BF401E0028CF
:10327000FBD17047000000000000000001020304C1
:1032800006070809000000000102030400061016EA
:1032900000061016400B0000800700006078000058
:1032A0002000000020000000200000000068010055
:1032B00000F00000000C0F00D832000800000020D1
:1032C00094000000FC1E00086C33000894000020ED
:1032D000348901000C1F00080024F40000000000E5
:1032E00000000000000000000100000010000000CD
:1032F000000000008C00000000000000ED29000824
:10330000292A000860040020000000100000006866
:10331000606C012000F00010000C0F68000000003D
:10332000000000000000000000000000000000009D
:10333000000000000000000000000000000000008D
:10334000000000000000000000000000000000007D
:103350001F0000000000000000000000000000004E
:0C33600030059007D008400AC0060000AD
:040000050800018965
:00000001FF
